:020000040008F2
:1000000090E70720B5010800BD0108006D06080053
:10001000C1010800C3010800C5010800000000007C
:10002000939D939B03999697FE000000C7010800DB
:10003000C90108003E620800CB0108006D070800F6
:10004000CF010800CF010800CF010800CF01080050
:10005000CF010800CF010800CF010800CF01080040
:1000600061080800CF01080059070800CF01080007
:10007000CF010800CF010800CF010800CF01080020
:10008000CF010800CF010800CF010800CF01080010
:10009000CF010800CF010800CF010800CF01080000
:1000A000CF010800CF010800CF010800CF010800F0
:1000B000CF0108002D09080000F002F800F068F8F0
:1000C0000AA090E8000C82448344AAF10107DA45B3
:1000D00001D100F05DF8AFF2090EBAE80F0013F09D
:1000E000010F18BFFB1A43F001031847A47000006A
:1000F000D47000000A444FF0000C10F8013B13F0DC
:10010000070408BF10F8014B1D1108BF10F8015B70
:10011000641E05D010F8016B641E01F8016BF9D163
:1001200013F0080F1EBF10F8014BAD1C0C1B09D1BA
:100130006D1E58BF01F801CBFAD505E014F8016B2C
:1001400001F8016B6D1EF9D59142D6D370470000BE
:10015000103A24BF78C878C1FAD8520724BF30C8F3
:1001600030C144BF04680C607047000000230024C5
:1001700000250026103A28BF78C1FBD8520728BFB7
:1001800030C148BF0B6070471FB51FBD10B510BD13
:1001900000F01AFA1146FFF7F7FF03F041FC00F0F8
:1001A00038FA03B4FFF7F2FF03BC00F03FFA000097
:1001B000854608470948804709480047FEE7FEE7AB
:1001C000FEE7FEE7FEE7FEE7FEE7FEE7FEE7FEE707
:1001D00004480549034A054B70470000A107080081
:1001E000B900080090E5072090E7072090E5072078
:1001F00040EA010310B59B070FD1042A0DD310C8A4
:1002000008C9121F9C42F8D020BA19BA884201D9F5
:10021000012010BD4FF0FF3010BD1AB1D30703D03D
:10022000521C07E0002010BD10F8013B11F8014BF3
:100230001B1B07D110F8013B11F8014B1B1B01D10F
:10024000921EF1D1184610BD10B5431C02E010F803
:10025000011B71B18107FAD14FF0013202C88C1A2B
:100260008C4314EAC211F9D0C01A0A0603D0C01E8A
:1002700010BDC01A10BD0A0401D0801E10BD0902B5
:10028000FCD0401E10BD40EA010370B59B072ED183
:100290004FF00136042A2AD308C810C99D1B9D437C
:1002A000121F15EAC61517D0D8B2E1B2401A50EAAB
:1002B000056110D198B2A1B2401A50EA05410AD1A5
:1002C00023F07F4024F07F41401A50EA052102D1FB
:1002D000180EA0EB146070BDA342DBD018BA21BA8F
:1002E000884201D9012070BD4FF0FF3070BD0AB9BE
:1002F000002070BD10F8013B11F8014B63B1A3421F
:100300000AD1521E08D010F8013B11F8014B1BB165
:10031000A34201D1521EEDD1181B70BD421E12F82E
:10032000013F002BFBD111F8013B002B02F8013BF0
:10033000F9D17047032A40F2308010F0030C00F02E
:10034000158011F8013BBCF1020F624498BF11F80F
:1003500001CB00F8013B38BF11F8013BA2F10402C8
:1003600098BF00F801CB38BF00F8013B11F0030340
:1003700000F06780083AC0F0088051F8043B083A62
:1003800051F804CBA0E80810F5E7121D5CBF51F846
:10039000043B40F8043BAFF30080D20724BF11F8C0
:1003A000013B11F801CB48BF11F8012B24BF00F825
:1003B000013B00F801CB48BF00F8012B7047431AFE
:1003C00028BF9A427FF6B6AF032A1044114440F288
:1003D000268010F0030F1EBF11F8013D521E00F8D9
:1003E000013D10F0030F7FF4F6AF11F0030300F0AE
:1003F000C180083AC0F00B8051F8043D083A51F82A
:1004000004CD40F8043D40F804CDFFF7F3BF121DC2
:100410005CBF51F8043D40F8043DAFF30080D207C3
:1004200024BF11F8013D11F801CD48BF11F8012C8E
:1004300024BF00F8013D00F801CD48BF00F8012CB1
:10044000704710B5203AC0F00B80B1E81850203A40
:10045000A0E81850B1E81850A0E81850BFF4F5AF64
:100460005FEA027C24BFB1E81850A0E8185044BFEE
:1004700018C918C0BDE810405FEA827C24BF51F85B
:10048000043B40F8043B08BF7047D20728BF31F84F
:10049000023B48BF11F8012B28BF20F8023B48BFA0
:1004A00000F8012B704702F0FF0343EA032242EAFF
:1004B000024200F002B84FF000020429C0F012809E
:1004C00010F0030C00F01B80CCF1040CBCF1020F07
:1004D00018BF00F8012BA8BF20F8022BA1EB0C01DC
:1004E00000F00DB85FEAC17C24BF00F8012B00F8D2
:1004F000012B48BF00F8012B70474FF0000200B5F8
:10050000134694469646203922BFA0E80C50A0E836
:100510000C50B1F12001BFF4F7AF090728BFA0E8E4
:100520000C5048BF0CC05DF804EB890028BF40F8B0
:10053000042B08BF704748BF20F8022B11F0804FF2
:1005400018BF00F8012B7047704770477047431A77
:1005500028BF9A427FF675AF104410F0030F114484
:100560001EBF11F8013D521E00F8013D10F0030FAF
:100570007FF4F6AF103AC0F00A8010B531E9185098
:10058000103A20E91850BFF4F9AFBDE81040530706
:1005900024BF31E9081020E9081044BF51F8043D98
:1005A00040F8043D12F0030F08BF7047D20728BF80
:1005B00031F8023D48BF11F8012C28BF20F8023D58
:1005C00048BF00F8012C7047754600F02BF8AE4686
:1005D00005006946534620F00700854618B020B54F
:1005E000FFF7F6FDBDE820404FF000064FF0000792
:1005F0004FF000084FF0000B21F00701AC46ACE8CB
:10060000C009ACE8C009ACE8C009ACE8C0098D4637
:10061000704710B50446AFF300802046BDE8104097
:10062000FFF7BFBD0048704730E50720014918209B
:10063000ABBEFEE72600020070474CF2850CC2F20A
:10064000070C60474CF2AF0CC2F2070C60474CF24B
:10065000470CC2F2070C60474CF2051CC2F2070CB3
:1006600060474CF24B0CC2F2070C6047EFF3088472
:100670000EF00F000D2801D1EFF30984A08B04F1D7
:100680002005800500D52D1D5FEACE6000D44835D9
:10069000704602F039F8EFF3098002F035F8EFF315
:1006A000088002F031F8EFF3148002F02DF82846AC
:1006B00002F02AF8606902F027F8A06902F024F835
:1006C000E06902F021F81248006802F01DF81048B5
:1006D000001F006802F018F80D48001D006802F0C5
:1006E00013F80B481030006802F00EF80848083084
:1006F000006802F009F806480C30006802F004F8BF
:100700004A2204A1002001F095FE00F099F8FEE7CE
:100710002CED00E02E2E5C2E2E5C2E2E5C736F7561
:100720007263655C6461706C696E6B5C4861726475
:100730004661756C745F48616E646C65722E63000F
:1007400000F01F02012191404009800000F1E020EB
:10075000C0F800117047000003480068400AC00755
:1007600001D004F071BB70474C0C0E4010B50B4C1F
:10077000E16849B1206938B12268B2FBF0F300FBAF
:10078000132008B9002088472068401C2060A0681A
:10079000002802D0A068401EA06010BD38C4072009
:1007A00020494FF440700860204A1F4810601F4BDA
:1007B000C43B18681E4900F08070084318601B484D
:1007C0007C380168C907FCD01A4919600168C9035F
:1007D000FCD5164B1849BC3B196001688907FCD54C
:1007E000124BB43B196821F0700141F010011960FF
:1007F00001680907FCD51221196001680907FCD5B9
:100800000A490020E439086008494FF4E050D4391F
:1008100008600548401C106008494FF40040C1F8CA
:100820005402704700080E4000434D50E4040E404F
:10083000090137000101370101860F2000100E4029
:10084000BFF34F8F04480168044A01F4E06111438B
:100850000160BFF34F8FFEE70CED00E00400FA05E6
:100860002DE9F0412748056815F0E00F03D0254930
:10087000801514390860E80723D02248001D00685D
:10088000C6B2214801F036FEA0F11304002C04DDAD
:1008900031461D4801F090FE03E001F0EAFE48B148
:1008A00014B1012C0AD00CE0132218A1164801F053
:1008B000C1FE06E0144801F041FEE9E7002003F024
:1008C0009DFD1048001F00682840800515D514487C
:1008D00001F021FE0B4D4FF40074083D114FE6006E
:1008E00030B102F075FE50B1BDE8F04101F05EBDDF
:1008F0002C603E600C4900208860BDE8F0812C60CF
:100900003E60FAE714060E4088DE07203C44415062
:100910004C696E6B3A4F766572666C6F773E0A0073
:1009200078DC0720500C0E4020C407204FF0E02157
:100930004FF00050C1F8800101F09EBC08281ED97C
:10094000102801D801207047202801D802207047C4
:10095000402801D803207047802801D80420704720
:10096000B0F5807F01D805207047B0F5007F01D831
:1009700006207047B0F5806F01D80720704700202F
:1009800070470000074B00F00F0003EB401260219E
:10099000C2F81811044951F8202022F0200241F831
:1009A0002020704700400A4068E40720817801F069
:1009B0000F02072A0DD2DFE802F007040407070937
:1009C00009004FF4007105E0402103E04FF480611D
:1009D00000E000218088814206DB5101034A4FF488
:1009E00018501144C1F804017047000000400A404B
:1009F0007047000009490028086806D020F40070FC
:100A00000860086840F4006005E040F40070086089
:100A1000086820F4006008607047000000400A4049
:100A200010B50B4C0B48A2880078824200D90246D0
:100A30001AB907490020143908718020216801F093
:100A40004DFC216801442160A188081AA08010BDD6
:100A500064C407206767080010B5064C0020A28810
:100A6000216801F03FF8216801442160A188081A3B
:100A7000A08010BD64C407207047000010B5084A6C
:100A800000F00F0102EB41140123C4F8083102EB1E
:100A90004010D0F81401034A42F8210010BD0000B4
:100AA00000400A4068E4072010B5084A00F00F0132
:100AB00002EB41140123C4F8043102EB4010D0F8DA
:100AC0001401034A42F8210010BD000000400A4012
:100AD00068E407202DE9F0476E4F0446A7F10805AA
:100AE00080074FF00009A5F1140622D501F0BCFBE8
:100AF0003878C009FFF7C0FFF888A8803878C0F3BD
:100B0000411121B101295AD002296FD165E07978CC
:100B1000DFF884810C2969D2DFE801F0060C681344
:100B2000681827682B31384601F0F8F81FE0FFF706
:100B300077FF67E0002005E001F0A6FBD8F8000091
:100B400039E0012001F028F9C0B3F5E710F01F0FDC
:100B50004CD1B878012140F08000307000F07F0067
:100B600001F05CFB01F090FB4CE001F01FF828B3B2
:100B7000DDE710F01F0F39D146481B3812E001F0B5
:100B80005BF9D8B101F080FB444813E000F01F008E
:100B900001282BD1707888B13879B178884225D274
:100BA0003F4908442860C2E701F00AFA30B101F079
:100BB0006BFB3C48006828B3804723E016E010F048
:100BC0001F0013D0012811D100F074F8D0B900F043
:100BD00073F8B8B900F06CF807E010F01F0F05D1FA
:100BE00000F098F870B900F097F858B93878000616
:100BF00003D4F88808B1002000E0802001F020FB39
:100C0000A5F80490600721D5387800061CD4A88880
:100C1000E0B1FFF721FFA888C0B93878C0F34111CF
:100C200061B101290AD110F01F0007D0012805D1B8
:100C300000F03CF850B900F037F838B9802001F0E6
:100C4000FFFAA5F8049001E001F024FB200712D57B
:100C50003878000606D5A888317908430BD0FFF70D
:100C6000DFFE08E03078010605D500F07F00307027
:100C7000002101F0D3FA600602D50020FFF782FEC2
:100C8000200604D5BDE8F0478020FFF77BBEBDE815
:100C9000F08700006CC40720C8670800C067080020
:100CA00034C40720C4670800002070470020704744
:100CB000002070470020704710B51248124A017991
:100CC000127891421BD142784188C088FE2A09D00F
:100CD000FF2A14D199B990B900F056FE78B101F00D
:100CE000D3FA0AE059B9012809D100F069FB30B103
:100CF000074906480860FFF793FE012010BD002059
:100D000010BD00006CC4072035C4072028E207206E
:100D100064C4072000207047002070472DE9F05F71
:100D2000DFF83091D9F81460D9F810004A4C064029
:100D3000F0060FD5D9F814004D46C0F3000020701E
:100D400001F0D4F904F0A0FB4448006800B18047EA
:100D50001020A861B00708D501F0A6FA4048006845
:100D600000B180470221C9F81810B00608D501F07B
:100D700049FA3C48006800B180472021C9F81810A2
:100D8000300602D58021C9F81810374D300705D537
:100D9000286800B180470821C9F81810700708D5E5
:100DA00020780424012802D1286800B18047C9F8BE
:100DB0001840DFF8B8A000244FF0010B04F108013F
:100DC0000BFA01F818EA060F3BD009EB4417D7F8E5
:100DD0001C51274840F82450680508D54FF480601E
:100DE000C7F818015AF8241009B108208847A80547
:100DF0000AD5D9F8101021EA0801C9F810105AF8DC
:100E0000241009B104208847A8040DD5D7F80001A3
:100E100010F0300F04D15AF8241009B1802088470F
:100E20004FF40050C7F81801E8040AD5D9F810109B
:100E300021EA0801C9F810105AF8241009B102205B
:100E40008847641C022CB9D9BDE8F05F1D20FFF76C
:100E500077BC000000400A4053C4072070670800B8
:100E600074670800786708007C67080080670800DE
:100E700068E40720F0B4244A224810602249D006D2
:100E8000D439086020494FF47100C83908601E4801
:100E90007C3801684906FCD51A48401C10601B4D7F
:100EA000286840F400702860286840F400602860DA
:100EB000286820F480702860286840F480702860DA
:100EC00001200023841E022605EB0011C1F808331F
:100ED00005EB4012C2F80841C2F81841C2F80431CB
:100EE000C1F80863C1F80833D1F80C23C1F80C230A
:100EF000401C0628E8D32B61FE20A861F0BC1D2011
:100F0000FFF71EBC00434D50E4040E4000400A4071
:100F100070B500F005F900281CD00F4802220F4DD3
:100F2000027042700E4C03202A632870A0680228C9
:100F300003D9A4F11F008260A2600A480649007824
:100F400040F0800001F0CAF9A068296B401AA06047
:100F50000120207370BD000068E2072074C40720E0
:100F600020E5072068670800114910B508780228B5
:100F700008D0032810D0042812D0052801D1002061
:100F8000087010BD0B48C07B282801D0A828F8D1D4
:100F9000BDE8104000F058BABDE8104000F02ABD8E
:100FA0000548007840F0800000F03CFDF4E70000C8
:100FB00074C4072001E5072068670800204A10B5BF
:100FC000117869B301290ED01E48052900781BD07D
:100FD00007292BD000F026FD1B4902200873BDE82D
:100FE000104000F007BD18481F38C07B2A2803D0E6
:100FF0002F2805D0AA2822D1BDE8104000F0F8BA69
:10100000BDE8104000F08ABA012181400F48006815
:10101000014201D0012000E000204FF4886200E08E
:1010200009E0BDE810400AA101F004BA00201070E8
:10103000106B1F2803D1BDE8104000F0C9B810BDE7
:1010400074C407206967080020E507205CC40720F6
:101050002E2E5C2E2E5C2E2E5C736F757263655C7B
:101060007573625C6D73635C757362645F6D7363EB
:101070002E630000104910B54868C86008B101200F
:1010800010BD0E4800F11F0482687AB1007B000693
:1010900004D50B48007840F0800005E0A068096B9B
:1010A000884203D00748007800F0BCFC0120207380
:1010B00000F0A0FC002010BD74C4072001E507204B
:1010C00068670800696708001048007900F08F0120
:1010D000080605D501F00F004FF48032824001E090
:1010E00001228A400A48007840F0800088420CD1F2
:1010F00008490968114208D00749084A096891421D
:1011000003D10D22044901F0E9B870476CC40720EF
:10111000686708005CC4072020E507205553425348
:1011200070B50A48022400F11F05816831B1007BC7
:10113000000608D40648007800F074FC2C7300F018
:1011400059FC002070BD012070BD000001E50720A2
:101150006967080010B50E480E4C8068216B884204
:1011600002D82063032000E0042020700A480B49C5
:10117000226B007840F0800001F0B0F80448226B48
:101180001F308168891A81600021017310BD000041
:1011900001E5072074C407206867080068E207209B
:1011A000FFF7E2BE064810B50288074805490078F7
:1011B00000F098FC05490863BDE81040FFF7FEBE4B
:1011C0006E67080068E207206967080074C407209A
:1011D0002DE9F047734E326B1F2A01D2134600E00F
:1011E0001F230020704D714902E00C5C2C54401C00
:1011F0009842FAD3DFF8BC910127DFF8B4A199F83F
:1012000000001F2A40F080007ED129686A4A91427E
:101210007AD1654C69681F346160A968A160697BF7
:1012200019B9A97B09B1102901D927738AE0E97B93
:101230004FF002082A293ED022DC1A294FD00FDCB9
:101240000429F2D006DCE9B30329EED1BDE8F0476A
:1012500000F058BB1229E8D1BDE8F04700F0B8B85B
:10126000232944D007DC1B2935D01E29DDD1BDE858
:10127000F04700F0DBB825293DD02829D5D148E03A
:101280009E2940D00FDC5529CFD004DC2F2954D023
:101290003529CAD103E05A2925D09129C5D1BDE805
:1012A000F04700F0EFBBA12929D0A3295DD0A829E0
:1012B0002FD0AA29B9D100F075FA002805D0287BD3
:1012C000000600E003E04BD43770BDE8F087BDE8CE
:1012D000F04700F0DFBBBDE8F04700F0B9BBBDE868
:1012E000F04700F037BABDE8F04700F007BABDE8B4
:1012F000F04700F0D1BABDE8F04700F0A5BABDE86C
:10130000F047FFF705BE00E032E0BDE8F04700F02F
:101310004BBB00F047FA0028D7D0287B000605D544
:1013200086F80080BDE8F04700F08EB89AF800001B
:1013300000F078FB84F80C8004E0287C800705D45A
:1013400000202073BDE8F04700F054BB00F02AFAFB
:101350000028BAD0287B000602D437703762B4E781
:1013600099F8000040F08000E2E700F05BFB5CE7EA
:101370004C4600F057FB2078104C00F00F014FF462
:101380008030884021685546084320609AF8000064
:1013900000F048FB28788740206807430620276034
:1013A000307092E774C4072001E5072068E2072047
:1013B00069670800686708005553424360C4072006
:1013C00002490020087001207047000028E2072031
:1013D00010B5FFF7A5FE002820D0114B002080217A
:1013E0001870597002219970D97020241C7158719D
:1013F0009871D8710B48016808200A7812B11A5404
:10140000491C00E01C54401CC0B22428F5D30649F6
:1014100024200863BDE81040FFF79CBE10BD00000B
:1014200068E2072030C4072074C407200548C07C48
:10143000C107044800F11F0000D00121017300F032
:10144000D9BA000001E507202DE9F0412E4D2F4FBC
:101450000026A969686ADFF8B88088420AD338781C
:10146000002440F0800000F0DDFA88F80C6000F005
:10147000C1FA08E028492748097830F81140E86A9D
:10148000844200D30446FFF7F5FD00B90024A86AA2
:1014900048B374B1A96AE86922460144387840F03B
:1014A000800000F01BFFA86A2044A862E86A001BC5
:1014B000E862D5E90410AA6A4143914203D1AE62C1
:1014C000696A08446862D8F808104046091BC8F8E1
:1014D0000810002C05D0E96A002902D103212970E7
:1014E0000673BDE8F081002CE3D0E96A2869014465
:1014F000491EB1FBF0F26869824200D90246E969EF
:10150000686A03F079FFC5E774C4072068670800BC
:1015100020E507206A67080053C407202DE9F04141
:101520002F4C00252F4EA169606A884207D32E48B0
:101530002563007800F076FA357300F05BFAFFF768
:1015400099FD20B1206B08B3A06A10B10FE02563AC
:1015500020E0E16A20690144491EB1FBF0F26069B4
:10156000824200D90246E169606A03F045FF00202B
:101570001E49A36A226B0BE0D4F81CC01F181CF88C
:10158000077011F800C0674501D0256202E0401CD9
:101590009042F1D3A16A206B0A18A262E16A0B1A89
:1015A000E362D4E904714F43974203D1A562626AB2
:1015B00011446162B168091AB16000280DD013B1FD
:1015C0002078052809D1206A28B100203073BDE8B1
:1015D000F04100F00FBA0120F8E7BDE8F08100000B
:1015E00074C4072020E507206967080068E2072027
:1015F0002DE9F041344D0026344FA969686A8842CC
:1016000007D333482E63007800F00CFA3E7300F0E5
:10161000F1F9FFF72FFD00B92E63296BA86A084482
:101620002969884206D9BDE8F041FF2229A100209E
:1016300000F000BF0020304905E0AB6AEC690A5CAD
:101640000344401CE2542A6B9042F6D3A86A11006E
:101650000844A862EA6AA2EB0102EA6222D092B9C7
:1016600088B129690844401EB0FBF1F468698442DE
:1016700000D904462246E969686A03F0D7FEAE62E3
:10168000686A20440DE0D5E9041202FB01F38342AD
:1016900008D1E969686A03F0C9FEAE626969686ADF
:1016A00008446862B968286B091AB960002809D033
:1016B000E86A10B12878052804D13E73BDE8F041EE
:1016C00000F098B9BDE8F08174C4072020E5072038
:1016D000696708002E2E5C2E2E5C2E2E5C736F75B3
:1016E0007263655C7573625C6D73635C7573626471
:1016F0005F6D73632E63000068E2072010B5FFF78B
:101700000FFD00281FD0FFF7B5FC00281BD00E48A6
:101710000021062201700D4B427081701A7AD201AD
:10172000C270017141718171C1710949082018634A
:101730008A68082A03D9A1F11F0290608860BDE879
:101740001040FFF707BD10BD68E2072074C40720F2
:1017500020E5072010B5FFF7E3FC00281BD0FFF7BA
:1017600089FC002817D00C480321002201700B4986
:1017700042700B7ADB018370C27004200863084951
:101780008A68042A03D9A1F11F0290608860BDE82D
:101790001040FFF7DFBC10BD68E2072074C40720CB
:1017A00020E5072070B5244C244DD4F8110000BA70
:1017B00020F0FF01207D01430020C5E90910E07BF6
:1017C0002F280AD004DC28280BD02A2817D104E0BF
:1017D000A8280DD0AA2812D106E0FFF74BFC00285C
:1017E00027D0E08A41BA0AE0FFF744FC002820D065
:1017F000D4F8150000BA20F0FF01207E01432869CB
:101800000D4E4143E962A06801251F3668B1884248
:1018100010D0207B000604D50948007840F08000F5
:1018200001E00848007800F0FDF8357300F0E2F8B8
:10183000002070BD012070BD01E5072074C40720A1
:10184000686708006967080010B5FFF769FC0028A1
:101850001CD0FFF70FFC002818D00D4A0D489169E5
:10186000491E0B0E03700B0C43700B0A8370C17082
:1018700011690B0E03710B0C43710B0A8371C1715B
:1018800008201063BDE81040FFF764BC10BD0000E5
:1018900074C4072068E2072010B5FFF741FC002858
:1018A00029D0FFF7E7FB002825D013480021134A71
:1018B0000170417081700821C17091690B0E037134
:1018C0000B0C43710B0A8371C17102210172116902
:1018D0000B0C43720B0A8372C17209490C2010630E
:1018E0008A680C2A03D9A1F11F0290608860BDE8C4
:1018F0001040FFF72FBC10BD68E2072074C407201A
:1019000020E5072010B5FFF70BFC002835D01B4859
:1019100070211B4B017000214170DC685A6832EA6B
:10192000040406D006248470282404734173DA600A
:1019300008E0DAB1134A127BE2B10522827020225C
:1019400002734173C1700171417181710A22C271C8
:10195000017241728172C1728173C17301744174E9
:1019600012201863BDE81040FFF7F4BB022282701A
:101970003A22E5E781700173E3E710BD68E20720D2
:1019800074C4072020E507200449002008600449AA
:1019900008600449072008700120704760C40720D0
:1019A00020E5072074C4072010B5FFF7B9FB002815
:1019B00017D00C4820220021027041700A4CC177D8
:1019C00003202263207009480649007840F0800017
:1019D00000F084FC0648226B8168891A816001212D
:1019E000017310BD68E2072074C40720686708000F
:1019F00020E50720084910B50648086007480D2271
:101A0000007840F0800000F069FC0549052008706E
:101A100010BD00005553425320E5072068670800B9
:101A200074C4072010B5044600F00AFC200605D552
:101A300004F00F014FF48030884001E00120A04005
:101A400002490A681043086010BD00005CC407200A
:101A50000A4810B5817C00F11F0429B101202073D0
:101A6000BDE81040FFF7C6BFC07C054900F001008B
:101A7000486003F0D9FC0020F1E7000001E50720F1
:101A800074C40720024900200873FFF7B3BF0000A9
:101A900020E507200F4810B5816800F11F0469B1E7
:101AA000007B000604D50C48007840F0800001E07F
:101AB0000A480078FFF7B6FF012004E0FFF7DAFAE2
:101AC000002805D000202073BDE81040FFF792BF2A
:101AD00010BD000001E5072068670800696708007D
:101AE000704700002DE9F04100F00F041D4850F848
:101AF00024701D48C7F30A5600EB0440964201D9F2
:101B0000154600E03546002204E010F8013B01F8DC
:101B1000013B521CAA42F8D3AE4201D1012000E0A1
:101B200000204FF4F77211A100F084FC1D48AE4272
:101B300006D1B90504D500EB44124115C2F81811BD
:101B4000F90405D500EB44124FF48051C2F8181186
:101B5000016901220834A240114301613046BDE809
:101B6000F081000068E40720000018202E2E5C2E73
:101B70002E5C2E2E5C736F757263655C6869635FA3
:101B800068616C5C61746D656C5C73616D3375323A
:101B9000635C757362645F415453414D3355324306
:101BA0002E63000000400A40FFF78EBA2DE9FC4189
:101BB0004E4BA3F11C051878A3F1080410F01F0088
:101BC00002D001286DD179E04949D878494E0A7888
:101BD0004649494F1C390628C97810D006DC01282F
:101BE00009D0022814D003287ED141E007282AD04A
:101BF0000F2879D156E04148206012205CE0002A8D
:101C000072D019B13E4820600A2055E03D48FAE7FD
:101C10000AB9012968D0022021B10097787000200C
:101C20009A7809E000967070F9E700990B7813B183
:101C30004B8819440091401C8242F6D100980178EB
:101C400079B3206037E062B3072021B1009670704D
:101C500000209A7809E000977870F9E700990B78EE
:101C600013B14B8819440091401C8242F6D1E5E73C
:101C7000254800909878032801D0002008E001F062
:101C8000A7FD0BE000990A780AB111440091401CAD
:101C900099788142F6D10098017811B120600078DE
:101CA0000AE021E01948007800281BD0184800906D
:101CB00020600178C1B14088019005E001A9684623
:101CC00000F02AF800280DD0A1880198814208D997
:101CD000104980B2A0800978491E084201D1012034
:101CE00028710120BDE8FC810020FBE76CC40720BF
:101CF0006567080098E0072060E10720CC670800CE
:101D0000E8670800DE670800F467080066670800F7
:101D1000F2670800676708000020704770B51C482C
:101D20001B4C0078A4F1080410F01F000AD0184AD8
:101D3000A4F11403174D59781279012806D002280E
:101D400024D109E01248163820601DE0F1B19878DE
:101D500082421BD2002015E002F08F00020605D55A
:101D600000F00F064FF48032B24001E001228240C1
:101D700009B900070AD19868104207D0D868104006
:101D800000D0012028802560012070BD002070BD9A
:101D90006CC4072028E2072070B5264B024619467E
:101DA0001878498810F01F00A3F11C0604D0012800
:101DB00029D0022827D111E0012924D132B10120F4
:101DC00000F07EFAF08840F0020005E0002000F00C
:101DD00077FAF08820F00200F08029E0187900F00E
:101DE0008F04200605D504F00F004FF480358540A0
:101DF00001E00125A540707828B1200703D0B06824
:101E0000284200D009B1002070BD2AB1204600F060
:101E100017FAF06828430AE03069284208D12046C2
:101E2000FEF7B0FD2046FFF7BFFEF068A843F06064
:101E3000012070BD6CC407202DE9F05F5A480026D0
:101E4000017811F01F0F7DD1574F80781C3FB146AC
:101E50004FF0010A4FF4803B00287AD053480178B4
:101E60003846C07809B901286CD008B1504C6CE0F4
:101E7000504C6AE06078022805D0042845D0052837
:101E800045D007285CD148486179807881423AD1B1
:101E9000787020794949B8700020474A098802E0E3
:101EA00002F80090401C8842FAD30125B8460AFA8D
:101EB00005F0D8F80810084202D02846FEF7DEFDEB
:101EC000D8F808100BFA05F0084203D045F080005E
:101ED000FEF7D4FD6D1C102DE9D34FF00110C8E9B9
:101EE00002090120C8F81090FEF782FDE079400653
:101EF000B8F8060002D540F0010001E020F0010032
:101F0000A8F806001CE060881BE0E67818E0BEB97F
:101F1000A07800F08F05280604D505F00F010BFA14
:101F200001F001E00AFA05F0B96801432046B96002
:101F3000FEF73CFD2846FEF7B7FD284600F046F9BF
:101F4000207801E02BE004E004442078002891D1BF
:101F500020E04D4687F8019001245E46B9680AFAF0
:101F600004F0084202D02046FEF788FDB96806FA60
:101F700004F0084203D044F08000FEF77FFD641CAB
:101F8000102CEBD34FF00110C7E9020500203D6192
:101F9000FEF72EFD044879788078884202D0002030
:101FA000BDE8F09F0120FBE76CC4072065670800CF
:101FB00060E1072098E0072034C407202CC40720E4
:101FC0002DE9F84F444800273E460078BA4600F015
:101FD0001F00B94601287CD13F491C3948780028A8
:101FE00074D0002000903D4802780846C0780AB9B5
:101FF00001286ED08B4608B1394C63E0394C61E062
:102000006078022805D004280AD005281AD00728AD
:1020100056D161799BF80100814251D0608850E02F
:102020002D48A778E67801794FF00009B94247D1E9
:102030008078B04244D1012000902B4810F807A0CE
:10204000C6553DE024490879B84239D1A07800F05E
:102050008F085FEA086005D508F00F004FF480355F
:10206000854002E0012505FA08F58878B04215D1CF
:10207000DBF8081020462943CBF80810DBF80C10D9
:10208000A943CBF80C10FEF791FC4046FEF70CFD7F
:10209000404600F09BF849EA050911E056450FD18A
:1020A00019EA050F0CD1DBF808104046A943CBF81C
:1020B0000810DBF80C10A943CBF80C10FEF7DEFC7F
:1020C00020780444207800289AD10098BDE8F88F41
:1020D000FFE70020FAE700006CC4072065670800EE
:1020E00060E1072098E0072034C407202DE9F0477D
:1020F000002007232F4E304A0446012502EB4011F1
:10210000C1F80041C1F8085146F82040401C02289F
:10211000F4D9D361D4612948006800B1022028496C
:102120000968002901D04FF0040140EA010002D003
:102130004FF0080101E04FF0000140EA01002149A1
:10214000096809B14FF0100140EA010040EA03209C
:102150009146144610614FF04000FEF7EFFB40F04F
:102160004000C4F8000143F21160C4F80401164CA9
:102170001BE06078052816D1A078E17800F00F0800
:10218000C60901F00307A579A088FEF7D7FB29024D
:1021900041F0400141EA071141EAC602024309EB5E
:1021A0004810C0F800212078044420780028E0D1AD
:1021B000BDE8F08768E4072000400A407467080023
:1021C0007C6708007067080060E107200B4900F099
:1021D0000F0010B501EB40136022C3F81821CC6941
:1021E000012282401443CC61CC699443CC61D3F882
:1021F0001411034A42F8201010BD000000400A40AC
:1022000068E407200448016921F0200101610169A7
:1022100041F002010161704700400A40002906D1E7
:10222000064928B10A6840F0800002430A607047FE
:10223000086820F0FF0008607047000000400A4076
:10224000074B00F00F0003EB40122021C2F81411DD
:10225000044951F8202042F0200241F82020704724
:1022600000400A4068E40720082202490020FFF7E6
:1022700039BC00006CC4072002484FF4007180682C
:1022800001F0BDBC5CC3072000221146802000F095
:1022900025B800000248034902780020FFF722BC5D
:1022A0006767080028E207200448016921F002015D
:1022B0000161016941F020010161704700400A405D
:1022C000002808D10448016821F480610160016997
:1022D00021F080010161704700400A402DE9F04182
:1022E00000F00F07204890460C4650F827601F4822
:1022F00000EB4715D5F81C0106F0200100F0200086
:10230000884201D1012000E000204FF4047218A19E
:1023100000F090F8B00602D54046BDE8F081D5F84F
:102320001C0140F2162240F3C02011A1401C00F015
:1023300081F846F3C02040F217220DA1401C00F0A6
:1023400079F81948002200EB074004E014F8011B5B
:1023500000F8011B521C41464245F7D34FF4006080
:10236000C5F814010846D8E768E4072000400A4091
:102370002E2E5C2E2E5C2E2E5C736F757263655C48
:102380006869635F68616C5C61746D656C5C7361E6
:102390006D337532635C757362645F415453414DB4
:1023A000335532432E6300000000182010B510484A
:1023B00000F0B1F800B10120A1220EA100F03AF81E
:1023C00018494FF480500860094800F0B7F81649E2
:1023D000164A887001208860891C1160111D0860F0
:1023E000124900021831086011494000086010BD10
:1023F00078DC07202E2E5C2E2E5C2E2E5C736F75E3
:102400007263655C6869635F68616C5C61746D656B
:102410006C5C73616D337532635C756172742E63CD
:1024200000000000540C0E4020C4072008070E4096
:1024300008060E402DE9F04116460F4600281AD135
:10244000EFF3108000F0010572B600231A4619461A
:10245000184600F079F9040003D13146384600F0FF
:10246000CDF905B962B6002C05D1EFF30380C006A3
:1024700001D103F0C3FABDE8F081000010B52822B5
:102480000D490E48FDF7DDFF03F092FB0C4803F009
:1024900089FB03F0B5F90B490B4A0C4B08604FF46C
:1024A0000071B0FBF1F01160094901221A60086067
:1024B00009490848086010BDA06308003CD1072006
:1024C000812C0800A8C4072084C4072088C40720E2
:1024D0008CC407203CCF072090C4072004484178D3
:1024E0008078814201D001207047002070470000B1
:1024F000ECC3072030B50546EFF3108000F001046F
:1025000072B6284600F007F8A968081A401E002C89
:1025100000D162B630BDEFF3108101F0010372B655
:10252000D0E900128A4201D3501A02E080681044B8
:10253000401A002B00D162B67047000070B5044607
:10254000EFF3108000F0010572B6D4E90001884273
:1025500001D0012000E0002043220EA1FFF76AFF16
:10256000E16820680E5C401C2060A16888420CD3A2
:1025700002D14FF0010001E04FF000004FF048029F
:1025800004A1FFF757FF0020206005B962B630466E
:1025900070BD00002E2E5C2E2E5C2E2E5C736F758F
:1025A0007263655C6461706C696E6B5C63697263B5
:1025B0005F6275662E63000070B50446EFF310800D
:1025C00000F0010572B66268E06881546068401CE2
:1025D0006060A16888420CD302D14FF0010001E095
:1025E0004FF000004FF0310209A1FFF723FF002058
:1025F0006060D4E90001884201D0012000E00020A1
:10260000362203A1FFF716FF002D00D162B670BD80
:102610002E2E5C2E2E5C2E2E5C736F757263655CA5
:102620006461706C696E6B5C636972635F6275662E
:102630002E6300002DE9F04114460E460746FFF7D1
:1026400059FF844200D220460546002404E0315D53
:102650003846FFF7B1FF641CAC42F8D32846BDE80A
:10266000F08100F0F1BB00F0EFBB002070470120CB
:1026700070470020704700002DE9F0418D211F4870
:10268000FDF719FF1E4C1F4F8D2520681B4EB842C9
:1026900010D1A5888D2D01D22A4601E04FF08D0280
:1026A00001D84FF08D0516491448FDF743FE002070
:1026B00086F847008D211248FDF7FDFE2760A580B2
:1026C00041223546F11DE01DFDF734FE35F8480F77
:1026D00024F8480FA878A070E878E07082000749D5
:1026E00007484C314C30FDF725FE95F8440084F83E
:1026F0004400BDE8F04100F0B7B8000074E40720E2
:10270000003F0820646C766B074A92F84B10102942
:1027100001D30020704702EB8101C86412F84B0F0F
:10272000401CC0B210707047003F082010B5054C27
:102730004121E01DFDF7BFFE002024F8480FE070A6
:1027400010BD0000003F08202DE9F047184F8146DA
:102750001D4616468846F81DFDF776FD441CB9F166
:10276000000002D04146FDF7A6FE002006B13080F1
:1027700005B12870F879002818D0444502D8F91D11
:10278000224604E0A4EB0800C1194246C91DB9F174
:10279000000F02D0B7F84800308016B14846FDF768
:1027A000C9FD15B197F84A0028700120BDE8F087EF
:1027B000003F0820014890F88C007047003F082037
:1027C000054991F84B202AB101F14C02026091F8C1
:1027D0004B00704700207047003F08200248807976
:1027E000002800D001207047003F0820024880796F
:1027F000002800D00120704774E407202DE9F04143
:1028000088460746FDF720FD104D441C4126314601
:10281000E81DFDF750FE412C02D83946224602E061
:10282000413CE11932462C46E81DFDF783FDA4F832
:10283000488000F0B1F808B1012003E000F0AEF8E4
:1028400000B1022084F84A00BDE8F081003F082072
:10285000014981F88C007047003F082001498871C8
:1028600070470000003F082070477047704770476E
:102870002DE9F0410F4606464FF0FF340025DFF802
:102880003C8012E0705D082101F08CFD84EA006458
:1028900008204146002C02DA81EA440400E064008A
:1028A000401E10F0FF00F5D16D1CBD42EADB202177
:1028B000204601F077FDC043BDE8F081B71DC1049B
:1028C0002DE9F0410E4617462021C04301F06AFD74
:1028D00004460025DFF83C8012E0705D082101F01D
:1028E00061FD84EA006408204146002C02DA81EA96
:1028F000440400E06400401E10F0FF00F5D16D1CA0
:10290000BD42EADB2021204601F04CFDC043BDE87A
:10291000F0810000B71DC10470B514460D4606468F
:10292000B2F5806F07D24FF4EF720AA10020FFF7D3
:1029300081FD022070BD00F0ADFC08B1102070BD1B
:102940002A462146304600F0F5FD0028F7D01F202A
:1029500070BD00002E2E5C2E2E5C2E2E5C736F75CB
:102960007263655C6461706C696E6B5C64726167F4
:102970002D6E2D64726F705C6961705F666C61733F
:10298000685F696E74662E6300000000C10600F087
:102990000F0000D4093070470120704700207047B5
:1029A00010B500231A4600F087FA002800D0012055
:1029B00010BD10B502F042FE012800D0002010BD6D
:1029C0002DE9F041154E4FF408244FF41F253078BF
:1029D000012806D04FF49C7211A10020FFF72AFDB8
:1029E00009E0B078022748B14FF49F720CA1002093
:1029F000FFF720FD37700220BDE8F081204600F08F
:102A00002BF810B137702120F6E704F58064AC4252
:102A1000F4D30120B0700020EEE70000C8C3072007
:102A20002E2E5C2E2E5C2E2E5C736F757263655C91
:102A30006461706C696E6B5C647261672D6E2D648D
:102A4000726F705C6961705F666C6173685F696EFC
:102A500074662E630000000070B5214E0446307885
:102A6000012806D04FF480721EA10020FFF7E2FC7F
:102A700018E04FF48060B4FBF0F100FB1141022537
:102A800011B14FF4847208E0F17869B1D6E902120D
:102A90001144A14208D040F20F1212A10020FFF70A
:102AA000C9FC3570022070BD4FF40822B4F5002F28
:102AB00001D3944211D30121F170C6E902402046AE
:102AC00000F068FF252803D00028ECD0357070BDD9
:102AD000204600F0DFFB0028F9D03570202070BDC3
:102AE000C8C307202E2E5C2E2E5C2E2E5C736F75B5
:102AF0007263655C6461706C696E6B5C6472616763
:102B00002D6E2D64726F705C6961705F666C6173AD
:102B1000685F696E74662E63000000004FF4806089
:102B20007047000010B5272804D2064951F820004C
:102B3000002805D1ED2204A10020FFF77BFC0AA0AC
:102B400010BD0000C46208002E2E5C2E2E5C2E2EBE
:102B50005C736F757263655C6461706C696E6B5CED
:102B60006572726F722E6300000000000146012042
:102B7000272901D20148405C7047000010C307209C
:102B80002DE9F04789460446804600E0641C207821
:102B9000402802D00028F9D163E06078622847D04D
:102BA00012DC522853D008DC422841D0442848D0B7
:102BB000482840D04D2817D133E054283ED055281E
:102BC00032D0562810D13FE0722840D006DC64286D
:102BD00037D068282FD06D2806D122E074282DD058
:102BE000752821D076282FD020A52046FDF72CFB74
:102BF00007462846FDF728FB0646A019C11908EB31
:102C00000902891E91422BD2BA1EA11CFDF7D7FBE7
:102C1000324629462046FDF78DFB20780028B6D1A4
:102C20001FE000F0C9FD01E000F0CEFD0546DCE745
:102C300000F06EFDFAE700F09DFDF7E700F0C0FD43
:102C4000F4E700F093FDF1E700F0C6FDEEE7094878
:102C500090F82A0010B1074D2A35C6E7064DC4E7A3
:102C60003C44A4EB0800BDE8F08700004552524FF9
:102C7000520000003E620800F87008007047000033
:102C80002DE9F0411E4615460C46074603F03EF876
:102C90002C4890F8201003290FD0022C0FD004B339
:102CA000012C0AD10168A94207D190F82210A9B3DA
:102CB00000214A1E016082608161BDE8F0810068E8
:102CC000A842FAD1304602F081FD0446304602F0B7
:102CD0007FFD0646384601F0E5FD034622463146B3
:102CE00017E0384601F0DEFD0328E6D0304602F05A
:102CF0006BFD8007E1D4384601F0D4FD074630462D
:102D000002F064FD0446304602F062FD01463B4697
:102D100022462846BDE8F04101F094BF28220A4926
:102D20000848FDF78EFB01F04DFE08488178012927
:102D300003D14178022900D18170BDE8F04101F052
:102D400049BE00003CD10720A0630800ECC3072067
:102D50002DE9F0411D4E0446174696F8220088469C
:102D6000550260B92946404601F058FD032802D0BB
:102D7000214601F011FF96F8220000280FD070685C
:102D8000A0420CD8F068A0420BD008D93069401C92
:102D900000D134613069A04200D204463461BDE8FC
:102DA000F081F0692A461044F061E019F06096F86D
:102DB000230020B1BDE8F041002001F093BF41465F
:102DC0002046BDE8F04101F08BBE00003CD1072059
:102DD000F0B518A185B0096804910278002104AB10
:102DE0005C5C944224D0491C0329F9D312A100222F
:102DF00091E878006F46815C8DE87800A1F1610C64
:102E0000BCF1190F14D9202901D2052910D14FF096
:102E1000000C17F80CE08E450AD00CF1010CBCF147
:102E2000100FF6D3521C0B2AE5D3012005B0F0BDDC
:102E30000020FBE7E5002000222A2B2C2E2F3A3B16
:102E40003C3D3E3F5B5C5D7C70B50D4D00202C78B9
:102E500074B100212970A97809B100F021FB022C7E
:102E600005D06978032902D0002800D1242070BD44
:102E70004FF4A27203A10020FFF7DCFA022070BD1C
:102E800098C307202E2E5C2E2E5C2E2E5C736F7541
:102E90007263655C6461706C696E6B5C64726167BF
:102EA0002D6E2D64726F705C666C6173685F646513
:102EB000636F6465722E630070B51C460546302949
:102EC00001D3012000E00020422212A1FFF7B2FA54
:102ED000286A696A1C4E0CB9002232711B4A914261
:102EE0000AD11B49884201D1022070BD1849FC3922
:102EF00088420CD1012070BD284602F055FB18B164
:102F00001CB90120307100E00CB1032070BD00201D
:102F100070BD00002E2E5C2E2E5C2E2E5C736F7505
:102F20007263655C6461706C696E6B5C647261672E
:102F30002D6E2D64726F705C666C6173685F646582
:102F4000636F6465722E630098C307200399969798
:102F50008F9E939B2DE9FF5F4FF00004DDF83890C2
:102F60005FEA030893460746254614D05FEA090046
:102F700011D00020C8F800000646C9F80000FFF78D
:102F80000BFDDFF8B4A090B14FF40820022F04D05D
:102F9000032F0AD035E06C2247E0BBF1000F04D0CC
:102FA0000199814201D01B242CE0064612E0FFF774
:102FB000F5FC30B3012F02D0032F0ED021E04FF4E7
:102FC0000021BBF1000F04D00198884201D01A24DF
:102FD00018E00E46DAF8005014E01848006980B195
:102FE0000C3003E08168012909D014300168002900
:102FF000F8D141680029F5D11148056802E006685A
:10300000FAE71C24FFF733FB08B9012F04D02CB1D9
:10301000204604B0BDE8F09F1C24F9E725B1C8F8AC
:103020000060C9F80050F3E7AE2206A10020FFF7C8
:1030300001FA0220EDE700009C6308003E620800F0
:10304000746308002E2E5C2E2E5C2E2E5C736F7522
:103050007263655C6461706C696E6B5C64726167FD
:103060002D6E2D64726F705C666C6173685F646551
:10307000636F6465722E630030B5164C002361786F
:10308000012904D0022905D0032921D105E04FF4FC
:10309000082318E04FF41F2315E02179C1B10E4930
:1030A0000969A9B10C3107E0844204D84C68844214
:1030B00001D34B6806E014310C68002CF4D14D6844
:1030C000002DF1D123B11044984201D3012030BD2D
:1030D000002030BD98C307203E62080010B50C4C9C
:1030E000207830B1BD220BA10020FFF7A3F9022008
:1030F00010BDFF2230211448FDF7D5F901202070C2
:1031000000206070A060E0602061A070E07010BDE1
:1031100098C307202E2E5C2E2E5C2E2E5C736F75AE
:103120007263655C6461706C696E6B5C647261672C
:103130002D6E2D64726F705C666C6173685F646580
:10314000636F6465722E6300C0C607202DE9FE4FD1
:10315000414F0646894638781546012807D0D222C5
:103160003EA10020FFF766F90220BDE8FE8FF87847
:103170004FF0010A18B9FE603E6187F803A0B878E5
:103180004FF00308002853D139698E4201D1012044
:1031900000E000202944396130B3B868C0F1300440
:1031A000AC4200D914463A49224608444946FDF744
:1031B000C1F8B8682D1B2044A1442644B8603028CB
:1031C0002CD302D14FF0010001E04FF000004FF08E
:1031D000F40222A1FFF72EF9D7E9021201232C48AD
:1031E000FFF76AFE787001E087F8018001A800907F
:1031F00002AB01227878F968FFF7ACFEF0B9B87835
:1032000040F20D1280F0010014A1FFF713F90198AC
:1032100000F0E8F890B987F802A001E0B87880B132
:10322000D7E902201A4900F041F838B9B87840B11E
:103230002A464946304600F039F810B187F8008038
:1032400093E72A4649463046FFF716FF00288CD000
:1032500002203870132088E798C307202E2E5C2E9A
:103260002E5C2E2E5C736F757263655C6461706C8E
:10327000696E6B5C647261672D6E2D64726F705C39
:10328000666C6173685F6465636F6465722E63006A
:10329000C0C6072010B5EFF3108101F0010472B62B
:1032A000FDF7CBF9002C00D162B610BD2DE9F04737
:1032B0003D4E05460024707817468846012807D001
:1032C0007C223AA10020FFF7B5F80220BDE8F08784
:1032D000F0784FF0020A50B9284601F04DF9040089
:1032E00002D086F801A05CE00120F0707561B06842
:1032F000B5FBF0F100FB11516A1A7169B1FBF0F3F3
:1033000000FB1310081A824204D0284600F01EF970
:103310000400E6D13069B5FBF0F100FB11516A1AE7
:103320007169B1FBF0F300FB1310081A824204D05C
:10333000284601F021F90400D3D1B1464E46D6E922
:1033400001010844A84207D8284600F0FFF804000D
:1033500002D089F801A024E00FB3D6E903010844A4
:10336000A84204D8284601F007F90400F1D170689A
:10337000B168B146281A0E1AB74200D23E46184923
:10338000324608444146FCF7D5FF36B1002089F8A3
:1033900002003544B044BF1BD0E70120F7E7C9F86D
:1033A0001450204692E70000ACC307202E2E5C2E5E
:1033B0002E5C2E2E5C736F757263655C6461706C3D
:1033C000696E6B5C647261672D6E2D64726F705CE8
:1033D000666C6173685F6D616E616765722E630014
:1033E000F0C6072070B51F4D0446687808B1482222
:1033F00026E024B3606810B3A06800B3E068F0B1C1
:103400002069E0B16069D0B1A069C0B1E069B0B134
:10341000FF224FF480611448FDF745F80126AE7095
:103420000020E8706860A860E8602861C5E90504CC
:1034300020688047040008D1287838B110E04E2277
:103440000AA10020FEF7F6FF022070BDA8690069FE
:103450008047040004D0A86940688047204670BDBA
:103460006E70FBE7ACC30720F0C607202E2E5C2E43
:103470002E5C2E2E5C736F757263655C6461706C7C
:10348000696E6B5C647261672D6E2D64726F705C27
:10349000666C6173685F6D616E616765722E630053
:1034A00070B5154C0025607810B1012807D00AE0EE
:1034B000CD2212A10020FEF7BDFF022070BD00202A
:1034C00000F044F80546A069406880470646FF22A0
:1034D0004FF480611648FCF7E6FF0120A070002140
:1034E000E1706160A160E1602161616161700EB1B4
:1034F000304670BD284670BDACC307202E2E5C2E12
:103500002E5C2E2E5C736F757263655C6461706CEB
:10351000696E6B5C647261672D6E2D64726F705C96
:10352000666C6173685F6D616E616765722E6300C2
:10353000F0C6072010B5EFF3108303F0010472B654
:10354000FDF780F8002C00D162B610BD70B50E4EAC
:1035500005460024B07840B9B0690C498368D6E9C3
:103560000102984704460120B070FF220748B16865
:10357000FCF799FFB068B5FBF0F100FB1150281A79
:103580007060204670BD0000ACC30720F0C6072065
:103590000449086920B10869D0F89C01002800D1CD
:1035A000081D70473E6208000449086920B1086997
:1035B000B0F8A001002800D1488870473E6208009A
:1035C00003460122014900201847000064D107206A
:1035D0000548007828B10548006840F34020401CA9
:1035E000704701207047000020C407203C0C0E40AB
:1035F0000248006840F34060401C70473C0C0E409D
:1036000000207047144908B54FF4E0500860134893
:103610004B060360114930310B60104A10321360C1
:10362000130603600B601360430503600B601360B7
:1036300099090160101D0160084864300160084864
:103640000090401E0090FCD14FF0E0214FF48060CC
:10365000C1F8000108BD000010040E40000C0E402F
:1036600040420F004FF00041012802D002480160A3
:1036700070470148001DFAE7300C0E404FF0005132
:10368000012802D00248016070470148001DFAE796
:10369000300C0E404FF08051012802D002480160EA
:1036A00070470148001DFAE7300C0E40092800D988
:1036B00027303030C0B2704710B510490020086084
:1036C0000F4908600F4908600F49086047F6FC7110
:1036D0004FF40020FFF7CCF8084908600B494FF47D
:1036E0000820FFF7C5F8064908604FF480514FF4F1
:1036F0001F20FFF7BDF80449086010BD3CC3072038
:1037000040C3072044C3072048C30720FC6F0100C3
:10371000004870474CC307200120C104064A096ACB
:10372000914200D000204FF40021044A496A91429E
:1037300000D0002070470000939D939B03999697BB
:1037400000B5FFF7E9FF08B9002000BD4FF40020E5
:10375000806AFAE701480068704700003CC3072010
:10376000014800687047000040C3072000487047C8
:103770004CC50720004870470AC5072001204FF4B8
:103780000821064A096A914200D000204FF408211E
:10379000034A496A914200D0002070478F9E939B54
:1037A0000399969700B5FFF7E9FF08B9002000BD1F
:1037B0004FF40820806AFAE700487047FDC40720EC
:1037C000004870472BC5072000487047CCC407202D
:1037D0000048704755C507200048704756C307206A
:1037E00010B5FFF769FF054800F054FD00F016FE24
:1037F00000F07CFF00F04EFF10BD0000ACC40720BD
:1038000010B5124C207830B1632211A10020FEF7D0
:1038100011FE022010BD002211461046FCF717FFD2
:1038200008B11D2010BD00206070A070E070A06085
:10383000E060207120616061A0614FF480611248F6
:10384000FCF739FE01202070002010BDC8C30720FE
:103850002E2E5C2E2E5C2E2E5C736F757263655C53
:103860006461706C696E6B5C647261672D6E2D644F
:10387000726F705C6961705F666C6173685F696EBE
:1038800074662E6300000000F0CA07202DE9F0479F
:103890002F4F0446164638788A464FF408224FF4D4
:1038A0001F21012808D04FF4BD722AA10020FEF785
:1038B000C1FD0220BDE8F08791464C4502D3884601
:1038C000444501D32220F5E7FFF768F880B3C4F53B
:1038D0001F25281FB04201D9324600E02A1F514659
:1038E000B869FEF7EDFF2949B8618C4209D2284832
:1038F000A4F50824204432465146FCF71BFD002065
:10390000D8E7A119414521D10AEB050111F8012C95
:1039100051F8041C62F31F61884201D02620C9E7D8
:10392000524631462046FFF705FE10B11F20C1E781
:103930000CE04FF4806216494846FEF7EDFF04465E
:10394000FFF7BAFE012078702046B3E72520B1E7E3
:10395000C8C307202E2E5C2E2E5C2E2E5C736F7536
:103960007263655C6461706C696E6B5C64726167E4
:103970002D6E2D64726F705C6961705F666C61732F
:10398000685F696E74662E630000000000840800A2
:10399000F0CA072070B5044612484FF408254FF4CA
:1039A0001F210078012807D04FF4DE720EA10020FD
:1039B000FEF740FD022070BDAC4201D38C4201D322
:1039C000222070BDFEF7EAFF48B12846844206D1A6
:1039D0002946BDE870404FF48062FEF79DBF252068
:1039E00070BD0000C8C307202E2E5C2E2E5C2E2E2C
:1039F0005C736F757263655C6461706C696E6B5C3F
:103A0000647261672D6E2D64726F705C6961705FA6
:103A1000666C6173685F696E74662E6300000000F7
:103A200000F0EAFCFFF7EEFDFEF726FEFFF7E8FDEB
:103A3000A0B9FFF7DDFD88B90D4C206970B1C068F1
:103A400001F0B2FD50B1FEF7D1FE38B92069094A44
:103A5000C1681160C06803C8FCF7AAFB00F0BFF89A
:103A600000221146044800F0D5F800F0BDF8FEE74A
:103A70003E62080008ED00E08D3A0800024901228C
:103A80000A704870704700005CC307200125FEF7EC
:103A9000ADFE10B1642000F09DF800F0B9F8434F7E
:103AA000B8600020FFF7EAFD0020FFF7DBFD2846A5
:103AB000FFF7F0FDFFF794FE01F07AFC012001F022
:103AC000B7FF002001F072FC4FF0000887F8038078
:103AD0000120C7F80C80B87001460B2443464246CB
:103AE000334800F09CF8032100F09EF84FF0FF39B6
:103AF00040F2032A4A460021504600F087F886B279
:103B0000B00501D5FDF70AF9F0072FD05A2001F0D2
:103B1000A7FFF878012806D1F86810B1401EF860B8
:103B200001D187F80380B878F0B101280ED00328BE
:103B300014D004281AD1F878C0B90CB1641E15D17C
:103B4000002001F033FC87F802800FE00CB1641E06
:103B50000CD1012001F02AFC032003E001F01EFC3F
:103B600020B10220B87001E0FCF76AFEB007C1D5B1
:103B700038780028BED07878012808D0022806D0EE
:103B8000012587F800802846FFF784FDB2E7012D64
:103B900001D0012500E00025002DF4D00128F2D14C
:103BA00087F8008087F80180EDE700005CC30720FC
:103BB000AD4A0800FFF792BA10B5044640F2011171
:103BC000FCF779FC00F002FC00202070BDE81040FA
:103BD000FFF784BA10B500F051FF002010BD10B5FA
:103BE00000F01CFF002010BD10B500F03DFF0020CC
:103BF00010BD00207047002070470020704710B5AE
:103C00000C46084600F0ECFE204610BD00F0F2BE67
:103C10000120704710B500F021FF012010BD10B544
:103C200000F016FF012010BD10B5084600F0F0FEB0
:103C3000002010BD2DE9F84F8A460C9C054600EB8C
:103C40000A087B4E00202060F078DFF8E8911F46DC
:103C50009346002818D00020F07099F8002009F150
:103C600004011846FCF766FB99F800002168074438
:103C7000084420607068B9F801106FF30F00084322
:103C800099F8001008447060CAE028780A2827D004
:103C90000D28FCD03A281BD0317800297ED0FEF7C1
:103CA00075FE00F00F02707819F800301A4309F819
:103CB0000020401CC2B2727099F800000090401DB4
:103CC000824254D35B4A0021084613785B1D0EE004
:103CD00025215848FCF7EFFB002030707070B07061
:103CE0009DE012F800C0401C6144C9B2C0B28342DA
:103CF000F7D809B104203BE0B078002837D1012083
:103D0000B070484630F8011F49BA0180807830B160
:103D100001282DD0022842D004287CD159E0454901
:103D2000252201F12500FCF705FB7068B9F8013088
:103D3000010C09041943814203D00120F0700220D4
:103D400016E009F104013846009AFCF7F3FA99F8F5
:103D5000000021680744084420607068B9F8011029
:103D60006FF30F00084399F800100844706052E0A8
:103D7000814621680A98FF22411A3846FCF793FBD6
:103D800020687168091A0B980160A8EB0501AAEB7D
:103D900001014846CBF80010BDE8F88F32E02168F9
:103DA0000A98FF22411A3846FCF77DFB20687168AB
:103DB000091A0B980160A8EB0501AAEB0101CBF8E9
:103DC000001099F8041099F80500090341EA001061
:103DD00015E021680A98FF22411A3846FCF763FB78
:103DE00020687168091A0B980160A8EB0501AAEB1D
:103DF0000101CBF80010B9F8040040BA000470606B
:103E00000220C9E7717825290FD2FEF7BFFD72782D
:103E1000000109F80200307838B1002030706D1CC4
:103E200045457FF432AF0020A2E70120F6E700000D
:103E3000E4C30720F0CE07202DE9F05FDFF8FC8017
:103E40000446154698F800008B464FF41F2A0128B7
:103E500005D0A3223AA10020FEF7ECFA3FE04FF490
:103E60008060B4FBF0F300FB1343014602260BB164
:103E7000AC222EE00A46954204D3B5FBF0F302FBD8
:103E8000135008B1B32224E0B4FBF1F002FB104060
:103E90002844884201D9BA221BE098F8020078B978
:103EA00098F8030050B1D8F80800844204D3D8F839
:103EB0000C100844A04203D8C8220AE0C22208E03D
:103EC00098F8040070B1D8E904010844A04209D070
:103ED000D0221BA10020FEF7ADFA88F80060022076
:103EE000BDE8F09F6719B4F5082F02D2B7F5002F8F
:103EF00017D84FF0010988F804902A465946204601
:103F0000C8E90445FFF7C2FC252804D00028E7D003
:103F100088F80060E4E75A4629462046FFF70AFB86
:103F200018B188F800601F20DAE7574503D3FFF780
:103F3000C3FB88F801900020D2E70000C8C3072027
:103F40002E2E5C2E2E5C2E2E5C736F757263655C5C
:103F50006461706C696E6B5C647261672D6E2D6458
:103F6000726F705C6961705F666C6173685F696EC7
:103F700074662E63000000004FF4806070470000FC
:103F800070B514460E46054620444FF48061B1EBEF
:103F9000402F07D240F265220AA10020FEF74AFA1C
:103FA000002070BD4FF400713046FCF784FA35B93B
:103FB00011481249006942013046FCF7BBF9600222
:103FC00070BD00002E2E5C2E2E5C2E2E5C736F7545
:103FD0007263655C6461706C696E6B5C647261676E
:103FE0002D6E2D64726F705C7669727475616C5F92
:103FF00066732E630000000004C4072068D8072001
:1040000010B50B464FF4007408B1002010BD2246D5
:1040100002491846FCF78EF9204610BDA8D50720A6
:104020002DE9F8430C4600210E46009110B1002006
:10403000BDE8F883DFF8C88098F80000012845D073
:10404000022845D0002720462EA101F063FA05463C
:1040500060192FA101F05EFA054460192E4901F0A4
:1040600059FA054460192DA101F054FA054460196C
:104070002BA101F04FFA05446019B8F8021001F0C5
:1040800052FA0544601925A101F044FA054477B1BC
:10409000601925A101F03EFA05446019394601F086
:1040A00039FA054460191DA101F034FA0544684647
:1040B000FEF786FB070021D00098F8B160191DA11A
:1040C00001F028FA05444FF4007811E01CA7BAE784
:1040D0001EA7B8E7009850F82610761CF6B26019B3
:1040E00001F0F0F9054460190CA101F013FA054440
:1040F000BE4203D205F10A004045EBD3284697E7BC
:10410000FCC307204173736572740D0A0000000040
:1041100046696C653A20000064D307200D0A000050
:104120004C696E653A200000536F757263653A20E2
:104130000000000048657864756D70730D0A00001A
:10414000426F6F746C6F6164657200004170706CD7
:1041500069636174696F6E000A4608B10020704798
:104160004FF40071104600F0CBBE00002DE9F0477F
:104170000D46044601F054FC0646FEF7D3FC074604
:104180003046FEF7F3FC064614B10020BDE8F08788
:1041900028461B4901F0BEF904462819394601F0AA
:1041A000B9F90444281917A101F0B4F914490444D9
:1041B0002819C91F01F0AEF9044400274FF0010887
:1041C000DFF8449013E0B8F1000F04D128190FA1D3
:1041D00001F0A0F90444F00707D059F82710281976
:1041E00001F098F904444FF0000876087F1C0EB1E6
:1041F000052FE8D3281903A101F08CF92044C5E765
:10420000CF6308000D0A0000E06408002C200000C5
:1042100070B50C4608B1002070BD4FF400752946FA
:104220002046FCF748F90748FCF70EF80246054916
:104230002046FCF77FF829462046BDE87040FEF78F
:104240009FBC0000D76308002DE9F041084D0646E9
:104250000F462846FBF7F8FF044616B10020BDE8DC
:10426000F081024629463846FCF764F82046F6E716
:104270008C70080010B50B464FF4007408B1002094
:1042800010BD224602491846FCF754F8204610BDDE
:10429000A8D3072030B5094D0446287818B9FCF793
:1042A000DBF90120287006480168216041686160DF
:1042B0008168A160C068E06030BD00001CC40720B8
:1042C00068DC072010B5084654022146FCF7F3F8D5
:1042D000204610BD70B5244D4FF0FF346878A978A2
:1042E000884201D0012000E000204FF4FD721FA1A0
:1042F000FEF7A0F86878022803D0C0B101281AD0D0
:1043000022E027484FF4FA7490F82000E0B1012829
:104310000AD0022818D0032816D04FF4037213A134
:104320000020FEF787F80FE044F620640CE0A87840
:10433000022808D008E0A878022801D018B103E0CC
:1043400040F6C41400E00024601C05D14FF407724D
:1043500006A1FEF76FF80024A868A04201D9012049
:1043600070BD002070BD0000ECC307202E2E5C2E17
:104370002E5C2E2E5C736F757263655C6461706C6D
:10438000696E6B5C647261672D6E2D64726F705C18
:104390007666735F6D616E616765722E6300000003
:1043A0003CD1072070B5034600200246012609E0F3
:1043B000DC0704D08D1A6D1E06FA05F420435B0855
:1043C000521CD2B28A42F3D370BD000010B5252131
:1043D0000748FCF770F8064825212530FCF76BF8F4
:1043E000044800214160017041708170C17010BDAE
:1043F000F0CE0720E4C30720704700004FF480612F
:1044000028B90448007810B1034801607047024899
:10441000001DFAE720C40720300C0E4070B50025BF
:104420000024FFF7C1F806464A48002101600171E7
:1044300021214948FCF73FF821214848FCF73BF887
:1044400009214748FCF759F84248002101600171F1
:1044500000BF00BF0AE0434A52F825103E4A101937
:1044600001F030F82044C4B2681CC5B2042DF2DB60
:1044700000222046611CCCB237490A540024002592
:104480000AE0394A52F82510344A101901F01AF896
:104490002044C4B2681CC5B2042DF2DB00222046C1
:1044A000611CCCB22D490A5400242D4908192F490A
:1044B000096801F007F82044C4B22046611CCCB260
:1044C000274900220A54FFF763F822490068086070
:1044D000002008710024300BFFF7E8F8014624485B
:1044E0002246641C8154C6F30320FFF7DFF801461F
:1044F0001F482246641C8154C6F30310FFF7D6F808
:1045000001461B482246641C815406F00F00FFF749
:10451000CDF8014616482246641C815400222146EB
:10452000641C42540024134830222146641C425427
:1045300032222146641C425435222146641C4254D6
:1045400034222146641C425400222146641C4254F9
:1045500070BD00004CC307200AC507202BC50720EB
:104560004CC50720ACC40720BCC4072038C30720B3
:1045700051C3072056C307202DE9F041364E0746A8
:10458000B0694169384688470546B069816938464F
:104590008847044635B12CB14FF4806845450AD8A8
:1045A000012009E040F235122CA10020FDF742FF66
:1045B0000220BDE8F08100204FF49D7227A1FDF795
:1045C00039FFB8FBF5F105FB118048B1002040F23E
:1045D0003B1222A1FDF72EFFAC4203D3012002E0E3
:1045E0000120F4E700204FF49E721CA1FDF722FF8A
:1045F000B4FBF5F005FB1040C0B1002040F23D12C5
:1046000016A1FDF717FFB7FBF4F004FB1070381A82
:10461000C6E903047060444500D34446B460B16900
:10462000096A29B1884704000AD101E00120E5E7C1
:10463000307850B1B069C168F0688847040004D090
:10464000B069406880472046B3E7FF221048B16850
:10465000FBF729FF0020ACE7ACC307202E2E5C2E11
:104660002E5C2E2E5C736F757263655C6461706C7A
:10467000696E6B5C647261672D6E2D64726F705C25
:10468000666C6173685F6D616E616765722E630051
:10469000F0C6072070B50025002400261148FBF75E
:1046A000D3FDC6B2022000EB4600C2B20E4821463E
:1046B000641C425403222146641C425400BF0EE095
:1046C0000848611C425D2046CCB207490A540022CA
:1046D0002046611CCCB204490A54681CC5B2B542DC
:1046E000EEDB70BDCCC4072055C5072010B53121C5
:1046F0000948FBF702FF09490748FBF70FFE084985
:104700000548FBF70BFE07490348FBF707FE064980
:104710000148FBF703FE10BDCCC407204CC30720A3
:1047200051C307200AC507204CC5072010B5094C06
:10473000207840B100F08AF86068C1680648884770
:104740000021217010BDC12204A10020FDF772FEDE
:10475000022010BD6CC30720BCC507202E2E5C2E86
:104760002E5C2E2E5C736F757263655C6461706C79
:10477000696E6B5C647261672D6E2D64726F705C24
:1047800066696C655F73747265616D2E630000000D
:1047900070B5134C0546207808B1862202E0022D40
:1047A00006D38C220FA10020FDF744FE022070BD2D
:1047B000FFF72EFAA0604FF482711748FBF79DFEB9
:1047C0000120207006480C3000EB05106060416845
:1047D000114888470028EAD00321217070BD0000ED
:1047E0006CC307202E2E5C2E2E5C2E2E5C736F75F4
:1047F0007263655C6461706C696E6B5C6472616746
:104800002D6E2D64726F705C66696C655F73747277
:1048100065616D2E63000000BCC507202DE9F041E5
:10482000094D0E460746002405EB04103146026888
:104830003846904710B12046BDE8F081641CE4B2D0
:10484000022CF1D30320F7E778C3072010B5FFF758
:10485000DFF906498968884201D1012000E0002083
:10486000BDE81040632202A1FDF7E4BD6CC3072040
:104870002E2E5C2E2E5C2E2E5C736F757263655C23
:104880006461706C696E6B5C647261672D6E2D641F
:10489000726F705C66696C655F73747265616D2EB2
:1048A0006300000010B500F1080103220C4607A0C8
:1048B000FBF7E9FC002806D00322214604A0FBF701
:1048C000E2FC08B1032010BD012010BD42494E009A
:1048D0004845580070B5154D06460C462878012805
:1048E00006D0A52212A10020FDF7A4FD022070BD74
:1048F000FFF7ACFF6868224631468368194898473D
:104900000446132806D0142C06D02CB1032028709E
:10491000204670BD0220FAE72878012800D0002048
:10492000B32203A1FDF786FDF2E700006CC3072068
:104930002E2E5C2E2E5C2E2E5C736F757263655C62
:104940006461706C696E6B5C647261672D6E2D645E
:10495000726F705C66696C655F73747265616D2EF1
:1049600063000000BCC5072010B5FFF751F90749E7
:104970004968884201D1012000E00020BDE81040D4
:104980004FF4B57202A1FDF755BD0000ECC307203E
:104990002E2E5C2E2E5C2E2E5C736F757263655C02
:1049A0006461706C696E6B5C647261672D6E2D64FE
:1049B000726F705C7666735F6D616E616765722E93
:1049C0006300000002480021C068FFF712B9000030
:1049D000ECC307200148C068FFF70FB9ECC30720FC
:1049E00072B603494A6802434A6062B670470000E3
:1049F00038C40720054903464A681342FCD048687A
:104A000072B64A6882434A6062B6704738C407206B
:104A1000014908617047000038C407200949002097
:104A2000086048608860C860086148614FF0E02114
:104A3000054A4A61054BF02283F8142D886107204E
:104A40000861704738C40720FEA50E000FE000E0A3
:104A50000149C8607047000038C407200149486117
:104A60007047000038C4072003484169002901D07D
:104A7000002008477047000038C4072002498860BA
:104A800088680028FCD1704738C4072002480078A5
:104A9000012800D000207047C8C30720884203D3F4
:104AA000904201D8012070470020704710B50B4C90
:104AB0000221A068FFF7A3F860680321B0FBF1F2C0
:104AC00001FB1201401C6060002905D1A068BDE80F
:104AD00010400121FFF793B810BD00005CC3072010
:104AE0002DE9F0411E4C15460E4694F8230038B1CE
:104AF000BDE8F04140F2C1221AA10020FDF79ABCA6
:104B0000E8051FD0002040F2C52216A1FDF792FC57
:104B100094F8210040F2C62212A1FDF78BFC294631
:104B20003046FFF7D7FE0027012613280CD01428A3
:104B300011D084F82470616929446161BDE8F041B5
:104B400000F0D0B80120DEE7FFF7F0FD84F8217017
:104B500084F8236000E0002084F82460EBE7000084
:104B60003CD107202E2E5C2E2E5C2E2E5C736F7592
:104B70007263655C6461706C696E6B5C64726167C2
:104B80002D6E2D64726F705C7666735F6D616E6101
:104B90006765722E6300000070B51C4D06460C461A
:104BA00095F82100002811D0002040F2862218A19B
:104BB000FDF740FC601C00D0012040F2872214A1C8
:104BC000FDF738FC6868401C02D002E00120ECE7E9
:104BD0006C6095F82700032801D185F82760686884
:104BE000A04203D195F82700B04201D0032008E08D
:104BF0003046FFF7CDFD20B945F80C4F012169750E
:104C0000A975BDE8704000F06DB800003CD10720E8
:104C10002E2E5C2E2E5C2E2E5C736F757263655C7F
:104C20006461706C696E6B5C647261672D6E2D647B
:104C3000726F705C7666735F6D616E616765722E10
:104C40006300000030B4194C94F82050032D02D0BA
:104C500025683DB107E030BC40F2362214A10020A7
:104C6000FDF7E8BB2060A068401C00D1A16094F86B
:104C70002700032801D184F82730A069904205D984
:104C8000E069904202D90AB103200CE0481C02D02E
:104C9000A0688842F8D1032B03D094F827009842EB
:104CA000F2D10020A26130BC00F01CB83CD107203A
:104CB0002E2E5C2E2E5C2E2E5C736F757263655CDF
:104CC0006461706C696E6B5C647261672D6E2D64DB
:104CD000726F705C7666735F6D616E616765722E70
:104CE000630000002DE9F0470446132803D0142C7C
:104CF00001D0012000E0002040F2E62243A1FDF7B0
:104D000099FB4F4D95F8200003280CD0296891B1EC
:104D1000D5E9060282420ED368B1D5E9010290427C
:104D200009D1012008E0BDE8F04740F2EA2237A1AE
:104D30000020FDF77FBB002085F8250095F8269020
:104D400019B995F82710032901D0012100E00021AD
:104D5000884620B195F8241009B1012600E000260C
:104D600095F8231011B108B1012000E0002082461F
:104D700028690027401C10D06868401C00D0012022
:104D80004FF4427221A1FDF755FB69682869401A6A
:104D900069694002814200D90127032014B185F8D6
:104DA00020001DE0B9F1000F09D00FB10624F6E78D
:104DB000B8F1000FF3D0002EF1D10424EFE7BAF1DF
:104DC000000FECD10EB1022003E0B8F1000F03D0C8
:104DD000012085F8200012E095F8200003280BD16F
:104DE00095F8210030B1FFF7A1FC002185F82110D2
:104DF00004B9044613480470B9F1000F03D1BDE8AB
:104E0000F04700F0FBBDBDE8F08700002E2E5C2EC1
:104E10002E5C2E2E5C736F757263655C6461706CC2
:104E2000696E6B5C647261672D6E2D64726F705C6D
:104E30007666735F6D616E616765722E6300000058
:104E40003CD10720ECC307200C4810B500684FF494
:104E50000074400AC00701D009480CE0094900204D
:104E600088600948FDF757FB18B1BDE81040FDF711
:104E70009DBA0348001F046010BD00003C0C0E40AA
:104E80000C060E4020C4072078DC072010B50D4C1E
:104E9000207830B100202070FBF7E3FB40B11E20EA
:104EA00010BD842208A10020FDF7C4FA022010BD25
:104EB000607810B9FDF770FD08B1002010BD242006
:104EC00010BD0000C8C307202E2E5C2E2E5C2E2E97
:104ED0005C736F757263655C6461706C696E6B5C4A
:104EE000647261672D6E2D64726F705C6961705FB2
:104EF000666C6173685F696E74662E630000000003
:104F00002DE9F0410F460446FBF7D5FA204685A16E
:104F100000F000FB0546601990A100F0FBFA054483
:104F2000601997A100F0F6FA0544601998A100F005
:104F3000F1FA054460199AA100F0ECFA0544FDF776
:104F400094FB08B19AA100E09AA1601900F0E2FA7E
:104F50000544601980A100F0DDFA0544601996A1AE
:104F600000F0D8FA0544FDF782FB08B190A100E0FB
:104F700090A1601900F0CEFA0544601976A100F006
:104F8000C9FA0544601992A100F0C4FA0544FDF77E
:104F900070FB08B186A100E086A1601900F0BAFAA2
:104FA000054460196CA100F0B5FA0544FDF7F4FC66
:104FB00008B18DA600E08FA6601991A100F0AAFAB1
:104FC00005446019314600F0A5FA0544601962A154
:104FD00000F0A0FA05446019314600F09BFA054440
:104FE00060198BA100F096FA0544FDF7D5FCA0B935
:104FF000FEF792FB88B1601989A100F08BFA054495
:10500000FEF79EFB01466019042200F0B6FA054443
:10501000601951A100F07EFA0544FDF7BFFCA0B96C
:10502000FEF7ACFB88B1601983A100F073FA054468
:10503000FEF7B8FB01466019042200F09EFA054411
:10504000601945A100F066FA054460197FA100F0DF
:1050500061FA0544601980A100F05CFA054460190A
:105060003DA100F057FA0544601986A100F052FAFC
:1050700005446019012100F056FA0544601936A173
:1050800000F048FA0544601982A100F043FA054493
:10509000601985A100F03EFA054460192EA100F0C8
:1050A00039FA0544FEF738FB80B160197FA100F0A2
:1050B00031FA0544FEF74EFB0146601900F002FA92
:1050C0000544601924A100F025FA054460197CA16B
:1050D00000F020FA0544FEF743FB0146601900F09A
:1050E000F1F9054460191CA100F014FA0544601997
:1050F00078A100F00FFA7B4905446019496800F077
:1051000012FA0544601914A100F004FA284420445E
:1051100075A100F0FFF939462046BDE8F041FDF7E2
:105120002FBD000023204441504C696E6B2046691E
:10513000726D77617265206279204D7573654C617F
:1051400062202D20736565206D7573656C61622D1D
:10515000746563682E636F6D0D0A00004275696C9B
:10516000642054696D653A204F63742032352032D3
:105170003031392032323A32353A31310D0A0000BD
:10518000556E697175652049443A2040550D0A00F5
:105190004849432049443A2040440D0A0000000099
:1051A0004175746F2052657365743A2000000000E9
:1051B00031000000300000004175746F6D6174694A
:1051C0006F6E20616C6C6F7765643A2000000000A0
:1051D0004F766572666C6F77206465746563746979
:1051E0006F6E3A2000000000426F6F746C6F616454
:1051F00065720000496E7465726661636500000047
:105200004461706C696E6B204D6F64653A200000DC
:105210002056657273696F6E3A2040560D0A000081
:10522000426F6F746C6F616465722056657273694A
:105230006F6E3A2000000000496E7465726661630B
:10524000652056657273696F6E3A20004769742055
:105250005348413A2000000039623565383031301A
:105260006333343539663763366634616364646347
:1052700062386235363531353462643365333533FF
:10528000000000004C6F63616C204D6F64733A2026
:105290000000000055534220496E746572666163D8
:1052A00065733A20000000004D534400426F6F7454
:1052B0006C6F61646572204352433A20307800007D
:1052C000496E74657266616365204352433A2030CB
:1052D0007800000052656D6F756E7420636F756E97
:1052E000743A2000FCC3072055524C3A2040520D1E
:1052F0000A00000070B519A0164AD0E900358CB03C
:10530000007A13601449556010720B604D6008728A
:105310001548002402F10906047001F1090518225C
:1053200012A16846FBF78DF8172269463046FBF755
:1053300001F8B470182213A106A8FBF782F817220F
:1053400006A92846FAF7F6FFAC700CB0BDE870402D
:1053500000F03CB898E0072060E107200902200037
:1053600001010080FA00000035C407200904000094
:1053700002080650040705810240000007050202EA
:1053800040000000090400000208065004070581DF
:1053900002000200070502020002000002484078F5
:1053A000002800D00120704750C40720FBF722BB23
:1053B000054910B50020C870FFF79CFFFCF790FB73
:1053C000BDE81040FBF756BD50C4072010B5FEF7EE
:1053D0001FFC074C60600020FEF70DFCE060FDF74D
:1053E0004DF8002060700349A070A060086010BDF7
:1053F000ECC3072078C4072070B514460D46064656
:10540000FFF7B2FA074B1868002809D00120FEF711
:1054100035FB224629463046BDE8704000F090BB7F
:1054200070BD000078C40720704700002DE9F041EE
:1054300015460E460746FFF797FA10480068002801
:105440001AD00F490F4C0020886094F820000328E0
:1054500012D00120FEF712FB2A463146384600F0F2
:1054600055FD94F82000032806D02A4631463846D8
:10547000BDE8F041FDF76CBCBDE8F08178C40720C1
:10548000ECC307203CD1072006484FF001120178F9
:105490000548C180002101704170C0E9022101610D
:1054A000704700006467080050C4072010B5EFF390
:1054B000108000F0010472B6FDF738F9002C00D11D
:1054C00062B610BD70B50D460446090E00F014F822
:1054D0000646A019C5F3074100F00EF80644A019CE
:1054E000C5F3072100F008F80644E9B2A01900F05E
:1054F00003F8304470BD0000054A02EB111301F0BF
:105500000F011B780370515C41700220704700004E
:10551000606308000346002001E01A54401C0A5C46
:10552000002AFAD17047F0B50646002002460B4625
:105530000A2504E0B3FBF5F3401C42F10002002B06
:10554000F8D150EA020301D10120002200231F46B6
:105550000EE0B1FBF5F405FB1414B1FBF5F13034AA
:10556000B0EB030CBCF1010C03F1010306F80C4095
:105570001C1A77EB0204ECD3F0BD2DE9F04115467F
:105580000E460746FFF7CFFF0446A8420AD2302254
:1055900029463846FAF787FF281B38443146FFF77B
:1055A000C2FF2846BDE8F0812DE9F04706462148B4
:1055B000006840B1016A31B130468847002800D008
:1055C0000120BDE8F0871C4804697CB3042500274E
:1055D000D6F800808146D43406E062684046FFF782
:1055E0005DFA01281FD0143421680029F5D16068C4
:1055F0000028F2D1D7B116E07019D9F81040002771
:10560000D0F800800C3406E062684046FFF746FAA6
:10561000012807D0143421680029F5D160680028DA
:10562000F2D11FB12D1D0C2DE6D9C9E7FFE70020EF
:10563000C7E700000CC307203E6208000B49096859
:1056400011B1496A01B1084701783A290AD1007AB3
:10565000302809D0322807D0332805D0342803D089
:10566000352801D000207047012070470CC3072067
:105670002DE9FF5F994692468B460098FDF7A8FBFF
:1056800040F297123CA1FCF7D5FE48490026484D50
:10569000B1F80B00497B484309EB0001491EB1FBFF
:1056A000F0F7B9F1000F19D00024A7F10108EE6856
:1056B00009E0E968481C82B23E4800F01FFDE86836
:1056C000401C641CE8604445F3D34FF6FF72394830
:1056D000E96800F013FDE868401CE86028692028AC
:1056E00002D34FF4D6721CE03349202201EB401460
:1056F000401C286131492046FAF71CFE00980168D9
:1057000021604168616001892181807AA072C4F8BA
:105710001C90300CA0826683A968102909D34FF42D
:10572000DD7215A10020FCF785FE002004B0BDE865
:10573000F09F214B01EB4100C03B214A43F8202060
:1057400003EB80021F4E5660BBF1000F01D043F8FF
:1057500020B0BAF1000F01D0C2F804A01348491CD0
:10576000B0F80B30407B43437B439360A9602878BB
:10577000401C28702046D9E72E2E5C2E2E5C2E2E43
:105780005C736F757263655C6461706C696E6B5C91
:10579000647261672D6E2D64726F705C76697274CD
:1057A00075616C5F66732E6300000000A8D307204C
:1057B00004C40720A8D5072068D80720446708003C
:1057C000C542080035620800C07A7047C06970475A
:1057D000C16961B1074A084B408BB2F80B105B6995
:1057E000527BB3FBF1F1801E00FB021070474FF0BB
:1057F000FF307047A8D3072004C40720C172704748
:105800000A4910B50846B1F81340B0F80B000CB9BE
:105810000C6A0CB1444306E0002440F28B1204A150
:105820002046FCF707FE204610BD0000A8D3072045
:105830002E2E5C2E2E5C2E2E5C736F757263655C53
:105840006461706C696E6B5C647261672D6E2D644F
:10585000726F705C7669727475616C5F66732E63CB
:10586000000000002DE9F0410F4680464FF400761D
:1058700031464E48FAF741FE31464D48FAF73DFEB3
:105880004C4C0025C0214C48E560FAF736FE4A48EA
:105890007100C030FAF731FE256125704748C4E930
:1058A00001053246464941486561FAF7CAFD3F4E57
:1058B00007F5803740F62D02B6F80B00717BB7FB79
:1058C000F0F04A43B0EB420F09D24FF4AC723DA165
:1058D0000020FCF7AFFD707B41F25A010DE04FF65E
:1058E00091725143814209D240F25B1235A10020EE
:1058F000FCF7A0FD707B4FF691714843B0F5803FF7
:1059000003D3A6F81350306202E0A6F81300356204
:10591000717B3022B0FBF1F040F2FF1101EB40004F
:10592000C0F34F27F78234492348FAF78AFD22490A
:1059300078024861086204206561A060002000EBE5
:10594000400201EB820263699268401C1A44626162
:105950000428F4D34FF6F87229461548E56000F0A4
:10596000CDFBE1684FF6FF72491C1148E16000F081
:10597000C5FBE0682049401CC4E903050E4D202208
:10598000C03528463031FAF7D5FCD8F80010296028
:10599000D8F804106960B8F80810298198F80A004E
:1059A000A87201202061BDE8F0810000A8D3072083
:1059B000A8D5072004C40720A8D707207D2C0800FD
:1059C000F46408002E2E5C2E2E5C2E2E5C736F75F8
:1059D0007263655C6461706C696E6B5C6472616754
:1059E0002D6E2D64726F705C7669727475616C5F78
:1059F00066732E6300000000F466080010B5FEF721
:105A0000E1FFFCF76BFD28B904484178022901D178
:105A100001218170BDE81040FEF7DCBFECC3072018
:105A200010B5FEF7A1FF0148007810BDECC30720B8
:105A300010B50446FEF798FFFCF720FD0649074A1B
:105A400024B1022048708870012002E000204870D4
:105A50008870106010BD0000ECC3072078C40720D8
:105A60002DE9F0410446FEF77FFFFEF7ABFFFCF7A0
:105A700035FD80B1FEF72EFC214A4EF66023916879
:105A8000994201D22144916028B19478557854709C
:105A9000012C06D103E0BDE8F041FEF79BBF0220D8
:105AA000907000269660FEF795FF0127CDB1012D7D
:105AB00017D0022D15D1134D95F82000032804D0DE
:105AC00085F826700020FFF70DF995F820000328CF
:105AD00012D000204FF489720BA1FCF7ABFC00F050
