:020000040008F2
:1080000090F80720058308000D8308001D980800DC
:108010001183080013830800158308000000000086
:108020008F9E939B03999697FE000000198208008B
:1080300019830800A2350900A1820800F182080016
:108040001F8308001F8308001F8308001F83080088
:108050001F8308001F8308001F8308001F83080078
:1080600011AA08001F83080035A308001F83080019
:108070001F8308001F8308001F8308001F83080058
:108080001F8308001F8308001F8308001F83080048
:108090001F8308001F8308001F8308001F83080038
:1080A0001F8308001F8308001F8308001F83080028
:1080B0001F830800F9AA080000F002F800F068F831
:1080C0000AA090E8000C82448344AAF10107DA4533
:1080D00001D100F05DF8AFF2090EBAE80F0013F01D
:1080E000010F18BFFB1A43F001031847F8CA00003C
:1080F00028CB00000A444FF0000C10F8013B13F0AD
:10810000070408BF10F8014B1D1108BF10F8015BF0
:10811000641E05D010F8016B641E01F8016BF9D1E3
:1081200013F0080F1EBF10F8014BAD1C0C1B09D13A
:108130006D1E58BF01F801CBFAD505E014F8016BAC
:1081400001F8016B6D1EF9D59142D6D3704700003E
:10815000103A24BF78C878C1FAD8520724BF30C873
:1081600030C144BF04680C60704700000023002445
:1081700000250026103A28BF78C1FBD8520728BF37
:1081800030C148BF0B6070471FB51FBD10B510BD93
:1081900000F0C6FA1146FFF7F7FF06F001FD00F008
:1081A000E4FA03B4FFF7F2FF03BC00F0E7FA0000C3
:1081B00080F309887047EFF309807047684680F3C1
:1081C000098804480078C00714BF0220032080F308
:1081D000148870471C400900DFF818C0EFF30583CE
:1081E0001B0618BF6047EFF31483DB0708BF604727
:1081F00000DF70477DF90800DFF818C0EFF3058352
:108200001B0618BF6047EFF31483DB0708BF604706
:1082100000DF704789FB0800EFF30980816911F8DE
:10822000021C39BB90E80F10E047EFF3098C194BA3
:1082300093E80600914218D059B10CB44FF00103F5
:1082400081F821302CE9F00FC1F824C007F030FF8D
:108250000CBC1A60D2F824C0BCE8F00F92F82130B0
:108260008CF309881BB192F82000CCF800006FF065
:10827000020E704710B5084A1268914209D8074C9F
:1082800054F8214090E80F10A047EFF3098C8CE8D8
:108290000F0010BDC4C807208C8708008C87080019
:1082A00007F0F2FD114B93E8060091421BD00CB48D
:1082B0004FF0000381F82130EFF3098C2CE9F00F27
:1082C000C1F824C007F0F4FE0CBC1A60D2F824C038
:1082D000BCE8F00F8CF3098892F821301BB192F8BA
:1082E0002030CCF800306FF0020E7047C4C8072071
:1082F00007F0A0FFD6E7000006F0A0FE07F09AFF07
:10830000D0E700000948804709480047FEE7FEE73C
:10831000FEE7FEE7FEE7FEE7FEE7FEE7FEE7FEE735
:1083200004480549034A054B7047000051A908005D
:10833000B980080090F6072090F8072090F60720F3
:10834000004870472CF6072040EA010310B59B0750
:108350000FD1042A0DD310C808C9121F9C42F8D0AF
:1083600020BA19BA884201D9012010BD4FF0FF3060
:1083700010BD1AB1D30703D0521C07E0002010BD76
:1083800010F8013B11F8014B1B1B07D110F8013B02
:1083900011F8014B1B1B01D1921EF1D1184610BDE3
:1083A00010B5431C02E010F8011B71B18107FAD12E
:1083B0004FF0013202C88C1A8C4314EAC211F9D072
:1083C000C01A0A0603D0C01E10BDC01A10BD0A0490
:1083D00001D0801E10BD0902FCD0401E10BD40EA35
:1083E000010370B59B072ED14FF00136042A2AD322
:1083F00008C810C99D1B9D43121F15EAC61517D04A
:10840000D8B2E1B2401A50EA056110D198B2A1B2D7
:10841000401A50EA05410AD123F07F4024F07F4101
:10842000401A50EA052102D1180EA0EB146070BD6D
:10843000A342DBD018BA21BA884201D9012070BD0D
:108440004FF0FF3070BD0AB9002070BD10F8013B3D
:1084500011F8014B63B1A3420AD1521E08D010F8A3
:10846000013B11F8014B1BB1A34201D1521EEDD1CA
:10847000181B70BD421E12F8013F002BFBD111F8F2
:10848000013B002B02F8013BF9D17047032A40F26F
:10849000308010F0030C00F0158011F8013BBCF1A6
:1084A000020F624498BF11F801CB00F8013B38BFBE
:1084B00011F8013BA2F1040298BF00F801CB38BFCC
:1084C00000F8013B11F0030300F06780083AC0F0A8
:1084D000088051F8043B083A51F804CBA0E8081092
:1084E000F5E7121D5CBF51F8043B40F8043BAFF3C5
:1084F0000080D20724BF11F8013B11F801CB48BF1F
:1085000011F8012B24BF00F8013B00F801CB48BF54
:1085100000F8012B7047431A28BF9A427FF6B6AF86
:10852000032A1044114440F2268010F0030F1EBFAE
:1085300011F8013D521E00F8013D10F0030F7FF4C9
:10854000F6AF11F0030300F0C180083AC0F00B80D1
:1085500051F8043D083A51F804CD40F8043D40F884
:1085600004CDFFF7F3BF121D5CBF51F8043D40F886
:10857000043DAFF30080D20724BF11F8013D11F88C
:1085800001CD48BF11F8012C24BF00F8013D00F8CF
:1085900001CD48BF00F8012C704710B5203AC0F05B
:1085A0000B80B1E81850203AA0E81850B1E81850F4
:1085B000A0E81850BFF4F5AF5FEA027C24BFB1E831
:1085C0001850A0E8185044BF18C918C0BDE81040A2
:1085D0005FEA827C24BF51F8043B40F8043B08BFAB
:1085E0007047D20728BF31F8023B48BF11F8012B72
:1085F00028BF20F8023B48BF00F8012B704702F06B
:10860000FF0343EA032242EA024200F002B84FF0BD
:1086100000020429C0F0128010F0030C00F01B804F
:10862000CCF1040CBCF1020F18BF00F8012BA8BF5D
:1086300020F8022BA1EB0C0100F00DB85FEAC17C21
:1086400024BF00F8012B00F8012B48BF00F8012BD4
:1086500070474FF0000200B5134694469646203905
:1086600022BFA0E80C50A0E80C50B1F12001BFF4EB
:10867000F7AF090728BFA0E80C5048BF0CC05DF851
:1086800004EB890028BF40F8042B08BF704748BF9F
:1086900020F8022B11F0804F18BF00F8012B704713
:1086A000704770477047431A28BF9A427FF675AFEC
:1086B000104410F0030F11441EBF11F8013D521E6B
:1086C00000F8013D10F0030F7FF4F6AF103AC0F050
:1086D0000A8010B531E91850103A20E91850BFF45B
:1086E000F9AFBDE81040530724BF31E9081020E975
:1086F000081044BF51F8043D40F8043D12F0030F48
:1087000008BF7047D20728BF31F8023D48BF11F8B3
:10871000012C28BF20F8023D48BF00F8012C70470B
:108720007546FFF70DFEAE4605006946534620F03C
:108730000700854618B020B5FFF7F2FDBDE82040E0
:108740004FF000064FF000074FF000084FF0000B0D
:1087500021F00701AC46ACE8C009ACE8C009ACE8C0
:10876000C009ACE8C0098D46704710B50446AFF3A8
:1087700000802046BDE81040FFF713BD01491820D6
:10878000ABBEFEE7260002007047000000000000BC
:108790004CF2470CC2F2070C60474CF2850CC2F257
:1087A000070C60474CF2AF0CC2F2070C60474CF26A
:1087B000051CC2F2070C60474CF24B0CC2F2070CCE
:1087C000604700002DE9F04104780D4604B901240A
:1087D0001948012C07D0022C28D000242C704FF00F
:1087E0000110BDE8F0810121017014494FF4E050FF
:1087F000086013494FF000700860114A1032106091
:108800000F4B243B18600E4E443E30600C4F543FDB
:1088100038600012086010601860306038604000F6
:1088200008601060186030603860D7E7022101707E
:1088300001F08AFDD2E70000F0C9072010040E40C5
:10884000540C0E402DE9F04102787F2A03D0BDE898
:10885000F04100F081BA01F8012B447801F8014B96
:10886000861C0D464FF0021708E02946304600F0FE
:1088700073FA074406EB104680B20544641EF4D236
:108880003846BDE8F08170B500240D4606282BD08F
:1088900006DC052828D2DFE800F02727270C0F0088
:1088A000F02816D0FD281FD0FE281AD0FF281BD193
:1088B00011E006F005F801E006F00AF80646FFF7B9
:1088C0006FFD401CC4B2224631462846FFF7DEFD4C
:1088D0000AE0132006E0402028700020487002249F
:1088E00002E0042008700124204670BD2DE9F04FFD
:1088F00085B00446049000208E1CCDE90101C049DA
:108900000870C04A14F8011B0546D175927D814656
:10891000914274D214F8011B5FEA01086FD014F879
:1089200001BB5FEACB7101D00B2700E00A275FEAA9
:108930008B7170D5B9F1000F3DD0B248BD42B0F88F
:108940000AA010D15FEACB600DD46946584601F009
:10895000D3F902281ED1BAF1010A03D3A849097834
:108960000029F2D0F9E00A2D03D00A25284600F0AC
:10897000E1FFDFF88C9269460E2001F0BDF9022874
:1089800006D1BAF1010A03D399F800100029F2D0F8
:108990004FF000090128E5D1009906F8011B009964
:1089A000090A06F8011B0099090C06F8021B009938
:1089B000090E06F8011C5FEACB614CD5E17854F84A
:1089C000040BBD4261F31F6003908E48B0F80CA009
:1089D00003D03D46384600F0ADFF8A484789002164
:1089E000584601F089F9022802D0012806D107E093
:1089F0007F1E03D3824909780029F0D0ADE0D4E08E
:108A0000804847896946584601F076F9022803D024
:108A1000012816D107E03EE07F1E12D3784909787D
:108A20000029EFD00DE07749009A09691140039AB7
:108A3000914206D0BAF1010A03D37149097800299D
:108A4000DED07049009A09691140039A91426DD0B5
:108A500040F010006AE0B9F1000F71D1BD4203D0BF
:108A60003D46384600F066FF6648DFF894A1478926
:108A70000021584601F040F9022802D001286CD1AB
:108A800006E07F1E69D39AF800100029F0D064E058
:108A90004FF0010954E0B9F1000F2AD00A2D03D09C
:108AA0000A25284600F046FF5648B0F80AA0694655
:108AB0000E2001F021F9022802D001284DD107E053
:108AC000BAF1010A49D34E4909780029EFD044E0B0
:108AD000009806F8010B00984FF00009000A06F80C
:108AE000010B0098000C06F8020B0098000E06F827
:108AF000010CE17854F8040B61F31F6000905FEA09
:108B00008B6103D53F490861012019E0BD4203D0C4
:108B10003D46384600F00EFF3A48DFF8E4A04789AA
:108B20006946584601F0E8F8022802D0012814D11D
:108B300006E07F1E11D39AF800100029F0D00CE057
:108B40000199491C01912E49097831B9A8F1010117
:108B50005FEA01087FF4E3AE0CE0B8F1000F09D042
:108B600014F8011B8A0701D5C90600D5241DA8F1F8
:108B70000108F2E7012834D10A2D02D00A2000F0C2
:108B8000D9FE20481E4FB9F1000F45891ED0694615
:108B90000E2001F0B1F8022802D0012821D105E011
:108BA0006D1E1ED339780029F1D01AE0009906F81D
:108BB000011B0099090A06F8011B0099090C06F827
:108BC000021B0099090E06F8011C0AE000210E2084
:108BD00001F092F8022804D16D1E02D339780029E1
:108BE000F4D0DDE901121170029948700298311A2F
:108BF000049805B0201A41EA0040BDE8F08F00005B
:108C000080C10720F0C907202DE9F84F00258946CB
:108C1000CF1C4F49064628460D70DFF8388116F8FC
:108C2000011B88F8171098F81620914224D236F8C4
:108C3000024B002C20D016F801AB5FEACA7001D0BD
:108C40000B2000E00A20834600F074FE5FEA8A7081
:108C50005CD54048DFF8F88046890021504601F095
:108C60004BF8022802D0012866D131E0761E63D38A
:108C700098F800100029F0D05EE03CB9BBF10A0F73
:108C800002D00A2000F056FE4FF00E0A3148468905
:108C90006946504601F030F8022802D001284BD135
:108CA00006E0761E48D398F800100029F0D043E083
:108CB000009907F8011B0099090A07F8011B0099A0
:108CC000090C07F8021B0099090E07F8011C6D1C1E
:108CD000641ED2D230E0F17856F8040B61F31F60C5
:108CE00000901C48B0F80A806946504601F004F82C
:108CF000022802D001281FD107E0B8F101081BD3D8
:108D0000134909780029EFD016E06D1C641EE2D2E9
:108D1000BBF10A0F02D00A2000F00CFE0D480C4EE9
:108D2000448900210E2000F0E7FF022804D1641ED0
:108D300002D331780029F4D089F800502A0A89F842
:108D4000012089F80200A7EB0900BDE8F88F0000B8
:108D500080C10720F0C907202DE9F0470278A2F171
:108D600080031F2B03D800F043F9BDE8F08701F81A
:108D7000012B984E10F801CB0C460025FF23B704B9
:108D8000954A4FF00111BCF1170F71D2DFE80CF0DA
:108D90000C141C20CBD6F870F035437070707070D6
:108DA000474C505E688DB1000078611CFFF76BFD89
:108DB000207000F10210D8E7007818B1012801D026
:108DC0002370FBE02570F9E02146FFF7FBFC29E06A
:108DD000824815704FF000730360804950390B6072
:108DE0007E4A643A13601B1203600B6013600760D5
:108DF0000F60176025700126E0E001887848794A05
:108E00000068B0FBF2F00322801CB0FBF2F0484394
:108E1000401EFDD1D6E7657025700226CEE02146C2
:108E200000F0ACFB0646C9E0214600F07DFBF9E707
:108E300010F8016B0EB94FF480760146304601F010
:108E40005BFDF61DF008257006044FE0007800F089
:108E500003035B1C1375C0F380005075257060E040
:108E600004F8015B27460124264610F8018B16E022
:108E7000ABE010F8015B814601463A46284600F017
:108E8000E9FE15F03F0000D14020C01DC1080C4490
:108E9000641C09EB01002A0601D50F440E44B8F109
:108EA0000108E6D264F31F4688E010F8016B002148
:108EB00096750B460BE002EB030C10F8017B8CF867
:108EC000187002EB430C5B1CACF820103944B34221
:108ED000F1D3002006E013181B7EC91A02EB4003F1
:108EE000401C1986B042F6D32570360406F10116EF
:108EF00064E01678022E13D10078D075927D9042EE
:108F00000ED20E2000F016FD00F03AFE25706070C3
:108F1000010AA170010CE170000E2071324900E0DD
:108F200023700E464AE001781172B0F801105181A9
:108F3000B0F80300908125702C4E3FE01278214656
:108F4000012A17D0022A18D00446401C10F8012B21
:108F500042B110F8013B9E0701D5DB0600D5001D8C
:108F6000521EF6D1001B0D7000044D70801C59E795
:108F700027E005E000F0C4F854E7FFF7B7FC51E73D
:108F800006461078214601280BD002280DD00D701E
:108F90004D70A5700320F17889070AD540F480262A
:108FA0000CE0304600F02CFAF5E73046FFF72CFED7
:108FB000F1E7B6F8011007EB8146064306F1011010
:108FC000D3E6214600F09AFB2CE704F8013C084662
:108FD000CBE6000001000200F0C90720640C0E403F
:108FE0009CC7072040420F0005000100010005005A
:108FF0002DE9FC47027801F8012B0D4610F8011B02
:109000004FF00114671C803906464FF001084FF0FD
:1090100002190D296CD2DFE801F0071722313A6BF3
:109020006B6B424F595D610005F04AFC0646FFF745
:10903000B7F9C4B22C70681C22463146FFF726FAF5
:1090400004F58034A41C53E00724684601F0BCFEFC
:10905000224669462846FFF719FA274C48E0684639
:1090600001F0B2FE30680090684601F0C9FE0020B1
:1090700001F03CFF85F80080204C39E03E21681C5F
:1090800008F0AEFE00F580342870A41C30E037787C
:10909000701C394608F00AFF85F8008024E085F846
:1090A0000080307828B1012803D0002028704C4679
:1090B0001EE005F0D9FEFAE785F8008004F076FAA4
:1090C00010B9022008F030FC3C4611E0307807F07F
:1090D00059FBEBE707F024FB2870F5E73778701CA5
:1090E000394607F0F1FB287004EB074404F1011442
:1090F0002046BDE8FC8700000900010002000500D1
:109100002DE9F04F87B0044605900020DFF8E8A273
:10911000CDE901018D1C8AF8000003906678A41C3B
:109120000746002E71D014F8018B5FEA88716DD567
:10913000A7B3B248B0F80A9008F01100012807D090
:10914000574669460E2001F03DF902280ED013E083
:109150006946404601F036F902280ED1B9F10109FD
:1091600003D39AF800100029F2D0F8E0B9F1010910
:1091700002D339780029E4D000270128F5D10099DD
:1091800005F8011B0099090A05F8011B0099090C53
:1091900005F8021B0099090E05F8011C5FEAC86179
:1091A0004FD5E17854F8040B61F31F6004909348A5
:1091B000B0F80CB05FEAC87013D09048B0F80A90CD
:1091C0000021404601F0FEF8022802D0012807D114
:1091D00007E0B9F1010903D39AF800100029EFD094
:1091E000BDE08648B0F80A906946404601F0EAF8CA
:1091F000022802D0012818D109E0B9F1010914D3DD
:109200009AF800100029EFD00FE0C6E055E07B4946
:10921000009A09691140049A914206D0BBF1010BF2
:1092200003D39AF800100029DBD07449009A096929
:109230001140049A914201D040F01000012817D14A
:1092400039E06E49B1F80A905FEAC87113D097BB54
:109250000021404601F0B6F8022802D001287ED154
:1092600007E0B9F101097AD39AF800100029EFD08C
:1092700075E001271FE06946404601F0A3F8022887
:1092800002D001286BD107E0B9F1010967D39AF840
:1092900000100029EFD062E0009905F8011B009949
:1092A000090A05F8011B0099090C05F8021B009931
:1092B000090E05F8011C002146E01FB34F48B0F825
:1092C0000A9069460E2001F07DF8022802D001289C
:1092D00045D107E0B9F1010941D39AF800100029FE
:1092E000EFD03CE0009805F8010B0098000A05F863
:1092F000010B0098000C05F8020B0098000E05F811
:10930000010C0027E17854F8040B61F31F60009012
:109310005FEA886103D539490861012015E03748C3
:10932000B0F80A906946404601F04CF8022802D095
:10933000012814D107E0B9F1010910D39AF80010FF
:109340000029EFD00BE0012103910199491C019103
:109350009AF8001019B9761E7FF4E5AE09E046B11F
:1093600014F8011B8A0701D5C90600D5241D761EF5
:10937000F5E7012832D10FB32048574646896946A0
:109380000E2001F01FF8022802D0012826D105E0A6
:10939000761E23D339780029F1D01FE0009905F813
:1093A000011B0099090A05F8011B0099090C05F831
:1093B000021B0099090E05F8011C0FE0039969B121
:1093C0000E485746468900210E2000F0FBFF022878
:1093D00004D1761E02D339780029F4D0DDE90112D8
:1093E0001170029948700298291A059807B0201A3E
:1093F00041EA0040BDE8F08F80C10720F0C9072096
:109400002DE9F84F0025DFF81881064628468A46E0
:10941000CF1C88F80050B6F80140F61C002C73D021
:1094200016F8019BDFF8FCB05FEA89715BD55FEA53
:10943000C97139D0BBF80A600021484600F0C2FF6C
:10944000022802D001285FD12EE0761E5CD398F866
:1094500000100029F0D057E024B95FEAC97001D0AC
:109460004FF00E09BBF80A606946484600F0AAFFB3
:10947000022802D0012847D106E0761E44D398F88E
:1094800000100029F0D03FE0009907F8011B009977
:10949000090A07F8011B0099090C07F8021B00993B
:1094A000090E07F8011C6D1C641ED5D22CE0F17862
:1094B00056F8040B61F31F6000901A48B0F80A8058
:1094C0006946484600F07EFF022802D001281BD1E1
:1094D00007E0B8F1010817D39BF800100029EFD07E
:1094E00012E06D1C00E0C346641EE0D20D485E46EB
:1094F000448900210E2000F065FF022804D1641E7B
:1095000002D331780029F4D08AF800502A0A8AF868
:1095100001208AF80200A7EB0A00BDE8F88F0000DE
:1095200080C10720F0C9072030B5C3780268104811
:1095300063F31F624AB10F4B00250F4C1B68B2EB5F
:10954000930F05D3012262700FE0FF220A7030BD35
:1095500002EB53035B1EB3FBF2F26570022A03D9E0
:109560000323B2FBF3F200E0012262600D7030BD14
:10957000010004009CC70720F0C907202DE9F0472F
:109580008A4644784179D0F80260484F057861F303
:109590001F66E00707F1040807D0E9074FF4003021
:1095A00001D0386001E0C8F80000A00707D5A9077E
:1095B0004FF4802001D5386001E0C8F80000600752
:1095C00009D5A808C1074FF4803001D0384901E01F
:1095D0003749091D086020060CD54FEAD51906F059
:1095E000F7FE5FEAC9714FF0007001D0386001E00A
:1095F000C8F800002E4F2D490C370C310023D6B38C
:109600002C48864200D906464FF0E02293612A4852
:10961000DFF8A8C00068B0FBFCF070435061052083
:109620001061E00704D00868C0F34040A8421CD194
:10963000A00705D50868C0F38040B0EB550F14D1E2
:10964000600705D53868C0F30040B0EB950F0CD12A
:10965000A00602D5B3EB551F07D120060AD508682E
:10966000C0F34060B0EBD51F04D01069C0F30040D8
:109670000028D6D0136108680A68C0F34040C2F3DE
:10968000804240EA42023868C0F3004042EA800269
:1096900038680968C0F3C03042EAC000490E40EAA9
:1096A000C1108AF800000648BDE8F087300C0E4073
:1096B000300E0E40C0C62D009CC7072040420F0050
:1096C000010006000A4800210A4A01704170126830
:1096D000094BB2FBF3F2921E426001726422428196
:1096E0008181012201610275417581757047000019
:1096F000F0C907209CC7072000093D00F8B50D46BA
:109700001449044600260878012803D0FF220228C5
:1097100010D10AE02179D4F8010061F31F600090B4
:109720006946002000F04EFE10E02078C875897D63
:10973000884201D32A700AE0082000F0FBF8217962
:10974000D4F8010061F31F6000F028FD2E7002487C
:10975000F8BD0000F0C907200100050070B50446FF
:10976000D0F808011D460E4600282AD0402A00DD08
:109770004022401EC4F80801D4F8100104EB801008
:10978000FEF784FED4F8100104EB80113046FFF799
:1097900059F8D4F8101104EB4101A1F80001D4F8F4
:1097A000100104EB8010286094F81001401C00F0B8
:1097B0000300C4F81001D4F80C01401CC4F80C01DB
:1097C000012070BDD0F80C31E3B15B1EC0F80C3144
:1097D000D0F8143100EB83130B60D0F8141100EBB8
:1097E0004101B1F80011116090F81411491C01F009
:1097F0000301C0F81411D0F80811491CC0F8081171
:1098000001207047002070470022C0F81021042179
:10981000C0F81421C0E9421270470000EFF3088439
:109820000EF00F000D2801D1EFF30984A08B04F195
:109830002005800500D52D1D5FEACE6000D4483597
:10984000704603F013FFEFF3098003F00FFFEFF30F
:10985000088003F00BFFEFF3148003F007FF2846A6
:1098600003F004FF606903F001FFA06903F0FEFE4E
:10987000E06903F0FBFE1248006803F0F7FE1048B1
:10988000001F006803F0F2FE0D48001D006803F0A1
:10989000EDFE0B481030006803F0E8FE0848083081
:1098A000006803F0E3FE06480C30006803F0DEFEBB
:1098B0004A2204A1002003F0D5FC01F099F8FEE74C
:1098C0002CED00E02E2E5C2E2E5C2E2E5C736F7520
:1098D0007263655C6461706C696E6B5C4861726434
:1098E0004661756C745F48616E646C65722E6300CE
:1098F0001CB507F085FA00281BD09E208DF80000CB
:10990000E7208DF801006946102000F0F5FF07F010
:1099100077FA00280DD000208DF800006946082055
:1099200000F0EAFF01A9002007F0FEF9012800D0AD
:1099300000201CBD0349497809B100F005B800F0CA
:1099400063B80000F0C907202DE9F0432B4C4FF419
:10995000802727607B10251D2B6023602B602360F0
:109960002F602B6023602B602360254E5A103260DD
:10997000244991F817C001EB4C09B9F8201019B12E
:109980002B602360491EFBD11E49DFF8748018311B
:1099900008F104081CF8011009E05FEAC07C01D05E
:1099A000326001E0C8F800202B6023604008491EA7
:1099B000F3D1B9F8301079B1C00701D0326001E0BD
:1099C000C8F800202B602360326001E02B60236028
:1099D000491EFBD1276006E02760C00701D0326036
:1099E00001E0C8F800202B6023602B6023602F600B
:1099F0002B6023603260BDE8F0830000300C0E4025
:109A0000300E0E40F0C907202DE9F047594D4FF4B4
:109A10008028C5F8008005F1040C4FF40037CCF81D
:109A20000070554B59680A46521EFDD12F600A46F8
:109A3000521EFDD1CCF800700A46521EFDD12F6097
:109A40000A46521EFDD1CCF80080CCF800700A46C0
:109A5000521EFDD12F600A46521EFDD1CCF8007077
:109A60000A46521EFDD12F600A46521EFDD1434EBA
:109A70004FF480343460DA7D03EB420A9146BAF841
:109A8000203053B1CCF800700A46521EFDD12F6031
:109A90000A46521EFDD15B1EF4D1374B183319F81C
:109AA0000330DFF8D89009F104090FE0C20701D0B4
:109AB000346001E0C9F80040CCF800700A46521E3C
:109AC000FDD12F600A46521EFDD140085B1EEDD12C
:109AD000BAF830203AB3C00701D0346001E0C9F8C9
:109AE0000040CCF800700846401EFDD12F600846AB
:109AF000401EFDD1346008E0CCF800700846401EDE
:109B0000FDD12F600846401EFDD1521EF4D1C5F88C
:109B10000080CCF800700846401EFDD12F6008463A
:109B2000401EFDD110E0C5F80080C00701D03460B0
:109B300001E0C9F80040CCF800700846401EFDD195
:109B40002F600846401EFDD1CCF800700846401E2C
:109B5000FDD12F600846401EFDD1CCF80080CCF826
:109B600000700846401EFDD12F60491EFDD13460B3
:109B7000BDE8F087300C0E40F0C90720300E0E40D3
:109B8000F0B5314C4FF4802626607310251D2B60F4
:109B90002E4A51680846401EFDD123600846401EEB
:109BA000FDD12E602B600846401EFDD12360084683
:109BB000401EFDD12B600846401EFDD123600846A3
:109BC000401EFDD1D27D4AB12B600846401EFDD11A
:109BD00023600846401EFDD1521EF5D10027DFF854
:109BE00070C01F222B600846401EFDD1DCF800002B
:109BF0002360C0F3C03E0846401EFDD147EACE7048
:109C00004708521EEED126602B600846401EFDD14B
:109C1000DCF800002360C0F3C0320846401EFDD1CE
:109C200047EAC2702B600A46521EFDD123600A46E5
:109C3000521EFDD12E602B600A46521EFDD12360BC
:109C4000491EFDD1F0BD0000300C0E40F0C90720C8
:109C50003C0E0E402DE9F04F814610F03F0000D140
:109C60004020DFF888B0DFF888E05FEA49644FF40D
:109C700080234FF4803AABF104084FF4003C01D547
:109C8000444600E05C4623602BE0002611F8015BAF
:109C900008231EE0EC07544601D0164F01E0154F93
:109CA0003F1D3C60CBF800C0DEF8044027467F1E15
:109CB000FDD1104F0C373F68C8F800C0C7F3C0375C
:109CC000641EFDD174086D08401E44EAC7165B1E71
:109CD00001D00028DED1DE405FEA096301D502F839
:109CE000016B0028D1D1BDE8F08F0000340C0E408C
:109CF000F0C90720300E0E40034A52780AB100F036
:109D000005B800F0CDB80000F0C907202DE9F04FEC
:109D1000604E4FF480238B4633605D10371D3D60ED
:109D200035603B603D6035603D6035605A49C97DB6
:109D300019B13D603560491EFBD1584C4108C90737
:109D4000A4F1040C4FF4803202D0CCF8002000E0E3
:109D500022603D60DFF8449109F10809D9F800104C
:109D60003560C1F3C03149004FEA90085FEAC87816
:109D700002D0CCF8002000E022603D60D9F80080DD
:109D80003560C8F3C03841EA08014FEAD0085FEAFD
:109D9000C87802D0CCF8002000E022603D60D9F8FD
:109DA0000080CE46C8F3C038356041EA8809B9F171
:109DB000010F01D0336059E0DFF8DC80810798F8AB
:109DC000160098F81780A0EB080A2BD500211F2059
:109DD000F0463D60D8F800403560E40B41EAC471BC
:109DE0004908401EF5D1BAF1010014D03D60D8F801
:109DF0000040C4F3C03400E03D603560401EFBD13C
:109E000033603D60356041EAC470BBF1000F2FD074
:109E1000CBF800002CE033603D60D8F80000C0F3C0
:109E2000C034EFE7DBF800001F215FEAC07802D002
:109E3000CCF8002000E022603D6035604008491EFB
:109E4000F3D1BAF101010AD0C00702D0CCF800204A
:109E500000E022603D603560491EFBD1AAE7336017
:109E6000C00702D0CCF8002000E022603D603560E1
:109E70003D6035603B603D603560CCF800200648B1
:109E8000007A01E03D603560401EFBD24846BDE8E7
:109E9000F08F0000300C0E40F0C90720340E0E4049
:109EA0002DE9FC4FDFF8E8C24FF480268E46CCF84F
:109EB00000600CF104087310C8F80030B54C6168FC
:109EC0000A46521EFDD1CCF800300A46521EFDD182
:109ED000C8F80060C8F800300A46521EFDD1CCF820
:109EE00000300A46521EFDD1C8F800300A46521E04
:109EF000FDD1CCF800300A46521EFDD1E47D5CB1A4
:109F0000C8F800300A46521EFDD1CCF800300A468F
:109F1000521EFDD1641EF3D19F4F4208D207A7F114
:109F200004054FF4803401D02C6000E03C60C24650
:109F3000C8F800300A46521EFDD1DFF85CB20BF1C2
:109F4000080BDBF80020CCF80030C2F3C0328846A2
:109F5000B8F10108FCD152004FEA90085FEAC878D6
:109F600001D02C6000E03C60CAF800308846B8F1AF
:109F70000108FCD1DBF80080DFF814C2C8F3C03858
:109F80009946CCF800300B465B1EFDD1C30842EA6F
:109F90000802DB0701D02C6000E03C60CC46CAF828
:109FA00000900B465B1EFDD1DBF80030E146C3F3A9
:109FB000C038774BC3F800C08C46BCF1010CFCD113
:109FC00042EA88020192012A0AD01E604A46CAF873
:109FD00000900846401EFDD11A60491EFDD1AEE03A
:109FE0006C4A5FEA807C907DD27DA0EB02000090FD
:109FF00055D500271F22CC46CAF800C00846401E8F
:10A00000FDD1DBF80000C3F800C0C0F3C03808463B
:10A01000401EFDD147EAC8704708521EECD1009897
:10A02000401E020025D0CAF800C00846401EFDD1DF
:10A03000DBF80000C3F800C0C0F3C0380846401E7B
:10A04000FDD1521E0AD0CAF800C00846401EFDD1FC
:10A05000C3F800C00846401EFDD1F2E71E60CAF8F2
:10A0600000C00846401EFDD1C3F800C0491EFDD106
:10A070000DE01E60CAF800C00846401EFDD1DBF8A6
:10A080000000C3F800C0C0F3C038491EFDD147EA44
:10A09000C870BEF1000F52D0CEF800004FE0DEF8DD
:10A0A00000001F22D4465FEAC07801D02C6000E097
:10A0B0003C60CCF800908846B8F10108FCD1C3F8A8
:10A0C00000908846B8F10108FCD14008521EEAD140
:10A0D000009A521E24D0C00701D02C6000E03C60E2
:10A0E0004F46CCF800900846401EFDD11F60084640
:10A0F000401EFDD1521E09D0CCF800700846401E0B
:10A10000FDD11F600846401EFDD1F3E71E60CCF86C
:10A1100000700846401EFDD11F60491EFDD10EE0B3
:10A120001E60C00701D02C6000E03C604A46CCF8BD
:10A1300000900846401EFDD11A60491EFDD14F46D1
:10A14000D446CAF8009013494A681046401EFDD113
:10A150001F601046401EFDD1CCF80060CCF80070A6
:10A160001046401EFDD11F601046401EFDD12C60E0
:10A170000C7A08E0CCF800701046401EFDD11F603C
:10A180001146491EFDD1641EF4D20198BDE8FC8F32
:10A19000300C0E40F0C90720340E0E402DE9F04F70
:10A1A0005B4E4FF4802434606510371D3D60594A82
:10A1B00051680B465B1EFDD135600B465B1EFDD121
:10A1C000A1463C603D600B465B1EFDD135600B46F1
:10A1D0005B1EFDD13D600B465B1EFDD135600B461D
:10A1E0005B1EFDD1D47DB4F1000A09D03D600B4661
:10A1F0005B1EFDD135600B465B1EFDD1641EF5D1A3
:10A20000DFF814C14FF48034CCF800403D600B46B9
:10A210005B1EFDD135600B465B1EFDD13D600B46DC
:10A220005B1EFDD135600B465B1EFDD13D600B46CC
:10A230005B1EFDD135600B465B1EFDD1DFF8D8807B
:10A240001F23A8F104089346C20702D0C8F80040B3
:10A2500001E0CCF800403D600A46521EFDD1356059
:10A260000A46521EFDD140085B1EEDD19BF8163008
:10A27000A3EB0A02521E25D0C00702D0C8F8004046
:10A2800001E0CCF800402B463D600846401EFDD161
:10A2900033600846401EFDD1521E08D03B60084680
:10A2A000401EFDD133600846401EFDD1F4E7C6F8DC
:10A2B00000903B600846401EFDD133600846401EBA
:10A2C000FDD110E0C6F80090C00702D0C8F80040E9
:10A2D00001E0CCF800403D600846401EFDD13560ED
:10A2E0000846401EFDD13D600846401EFDD1356048
:10A2F0000846401EFDD1C7F800903D600846401E4C
:10A30000FDD13560491EFDD1C8F80040BDE8F08F91
:10A31000300C0E40F0C90720340E0E4000F01F0232
:10A32000012191404009800000F1E020C0F80011B7
:10A330007047000003480068400AC00701D007F0DA
:10A3400093BD70474C0C0E4030B51B494FF4E050A4
:10A3500008601A494FF000700860184A1032106007
:10A36000164B243B1860154C443C2060134D543D63
:10A3700028600012086010601860206028604000AB
:10A38000086010601860206028600D498010086027
:10A390000B49103108600A4A243A1060084A443ACE
:10A3A0001060074A543A106040101060044A403A66
:10A3B0001060086030BD000010040E40540C0E40C8
:10A3C000540E0E40034A52780AB100F005B800F06E
:10A3D000EDB80000F0C907202DE9F04F714B894618
:10A3E0004FF4802701461F607D101E1D35601D60E3
:10A3F000C00701D01F6000E0376035601D6048086D
:10A40000C40701D01F6000E0376035601D600A1886
:10A410008808C40701D01F6000E0376035601D6008
:10A420000244C808C40701D01F6000E037603560EF
:10A430001D601044C00701D01F6000E03760356028
:10A440001D60376035601D601F6035601D605548B8
:10A450001C380760DFF850A19AF81400021E03D0E0
:10A4600035601D60401EFBD13560DFF8388108F192
:10A470000C08D8F800001D60C0F380403560D8F8A3
:10A4800000401D60C4F3804440EA44003560D8F8C1
:10A4900000401D60C4F38044DFF808B140EA840046
:10A4A000ABF1200B01280CD002285AD0042858D038
:10A4B000213203D035601D60521EFBD1CBF80070F5
:10A4C0006CE0890726D50024224620213560D8F883
:10A4D00000C01D60CCF3804C6408624444EACC7434
:10A4E000491EF3D13560D8F800101D6082EA914210
:10A4F000D10700D00820B9F1000F01D0C9F8004001
:10A500009AF8141019B135601D60491EFBD1CBF8C3
:10A5100000701DE01AB135601D60521EFAE7CBF8DD
:10A5200000700024D9F8001020225FEAC17C01D01D
:10A530001F6000E0376035601D600C444908521E02
:10A54000F3D1E10701D01F6000E0376035601D6086
:10A550009AF8081011B3376035601D60491EFBD1B1
:10A560001CE09AF815404CB15FEA817C06D54FF0AB
:10A57000210C35601D60BCF1010CFAD11AB13560B7
:10A580001D60521EFAE7CBF800703CB1890705D474
:10A590003760212135601D60491EFBD11F60BDE879
:10A5A000F08F0000300C0E40F0C907202DE9F04F6D
:10A5B000CF4A04464FF480208A460026106002F1FC
:10A5C000040C4710CCF80070CA4B59680D466D1E3C
:10A5D000FDD117600D466D1EFDD1E50701D010605D
:10A5E00001E0CCF80000CCF800700D466D1EFDD1E6
:10A5F00017600D466D1EFDD106EB04086608F507D1
:10A6000001D0106001E0CCF80000CCF800700D46DD
:10A610006D1EFDD117600D466D1EFDD1B044A6081C
:10A62000F50701D0106001E0CCF80000CCF8007014
:10A630000D466D1EFDD117600D466D1EFDD14644C1
:10A64000E5085FEAC57801D0106001E0CCF80000B1
:10A65000CCF800708846B8F10108FCD11760884634
:10A66000B8F10108FCD13544ED0701D0106001E0DC
:10A67000CCF80000CCF800700D466D1EFDD11760BF
:10A680000D466D1EFDD1CCF80000CCF800700D46D3
:10A690006D1EFDD117600D466D1EFDD11060CCF80A
:10A6A00000700D466D1EFDD117600D466D1EFDD16B
:10A6B0008F4D81461C3D28601D7D2E1E0AD0CCF892
:10A6C00000700846401EFDD117600846401EFDD1AF
:10A6D0006D1EF4D1CCF800700846401EFDD1844DAB
:10A6E0000C3528681760C0F380400B465B1EFDD117
:10A6F000CCF800700B465B1EFDD12B681760C3F3CE
:10A7000080438846B8F10108FCD140EA4300CCF808
:10A7100000700B465B1EFDD12B68AB46C3F3804334
:10A7200017600D466D1EFDD1DFF8C4E140EA8300DD
:10A73000AEF1200E012816D002286ED004286CD06D
:10A7400021360AD0CCF800700B465B1EFDD1176095
:10A750000B465B1EFDD1761EF4D14946CEF8009023
:10A760001160BDE8F08FA3073FD54FF000084546C4
:10A770002024CCF800700B465B1EFDD1DBF80030C6
:10A780001760C3F380460B465B1EFDD14FEA5803AA
:10A79000354443EAC678641EEBD13C46CCF80070E1
:10A7A000544E0B465B1EFDD1DBF800301460C3F342
:10A7B0008043491EFDD15D40E90700D00820BAF171
:10A7C000000F01D0CAF80080337D5BB17568CCF80A
:10A7D00000402946491EFDD114602946491EFDD17D
:10A7E0005B1EF4D1CEF8009037E056B1CCF8007083
:10A7F0000B465B1EFDD117600B465B1EFDD1761E1E
:10A80000F3E7C846CEF800900026DAF8003020259D
:10A81000DC0703D0C2F8008002E031E0CCF8008011
:10A82000CCF800700C46641EFDD117600C46641E07
:10A83000FDD11E445B086D1EEAD1F30702D0C2F8B9
:10A84000008001E0CCF800803C46CCF800700B465C
:10A850005B1EFDD11460491EFDD126490C7A6CB1F6
:10A86000CCF800904D68CCF800702946491EFDD107
:10A8700017602B465B1EFDD1641EF4D149466FE77D
:10A880001C4B93F81580B8F1000F0DD0A3070BD522
:10A890002125CCF800700B465B1EFDD117600B46DE
:10A8A0005B1EFDD16D1EF4D156B1CCF800700B4685
:10A8B0005B1EFDD117600B465B1EFDD1761EF3E7D4
:10A8C0004D46CEF80090B8F1000F0FD0A3070DD47D
:10A8D000CCF800502124CCF800700B465B1EFDD153
:10A8E00017600B465B1EFDD1641EF4D1156038E77E
:10A8F000300C0E40F0C90720F0B5144C0023DFF8EF
:10A9000048C04FF480271A46ACF1040E7E106568EB
:10A9100016E012B911F8013B0822DC0702D0CEF88C
:10A92000007001E0CCF80070CCF800602C46641E8A
:10A93000FDD1CEF800602C46641EFDD15B08521E8E
:10A94000401EE6D2F0BD0000340C0E40F0C90720D6
:10A9500020494FF440700860204A1F4810601F4B88
:10A96000C43B18681E4900F08070084318601B48FB
:10A970007C380168C907FCD01A4919600168C9030D
:10A98000FCD5164B1849BC3B196001688907FCD5FA
:10A99000124BB43B196821F0700141F010011960AD
:10A9A00001680907FCD51221196001680907FCD567
:10A9B0000A490020E439086008494FF4E050D439CE
:10A9C00008600548401C106008494FF40040C1F879
:10A9D0005402704700080E4000434D50E4040E40FE
:10A9E000090137000101370101860F2000100E40D8
:10A9F000BFF34F8F04480168044A01F4E06111433A
:10AA00000160BFF34F8FFEE70CED00E00400FA0594
:10AA10002DE9F0412748056815F0E00F03D02549DE
:10AA2000801514390860E80723D02248001D00680B
:10AA3000C6B2214802F0DAFCA0F11304002C04DDB8
:10AA400031461D4802F042FD03E002F0BFFD48B16F
:10AA500014B1012C0AD00CE0132218A1164802F000
:10AA60008AFD06E0144802F0F3FCE9E7002005F057
:10AA700085FC1048001F00682840800515D5144843
:10AA800002F0C5FC0B4D4FF40074083D114FE60079
:10AA900030B103F0EBFD50B1BDE8F04102F042BB34
:10AAA0002C603E600C4900208860BDE8F0812C607D
:10AAB0003E60FAE714060E400CE407203C44415087
:10AAC0004C696E6B3A4F766572666C6F773E0A0022
:10AAD000FCE10720500C0E40A0C707204FF0E021FA
:10AAE0004FF48070C1F8800170474FF0E0214FF4BF
:10AAF0008070C1F8000170474FF0E0214FF0005026
:10AB0000C1F8800102F05ABA002070470348D0E92A
:10AB10000410081A02490988081A704720C907203A
:10AB2000B43D090070B50B4D0C460346D5E90C0148
:10AB300088420BD9401A844200DD0446224618465A
:10AB4000FDF7A4FC686B2044686300E00024204605
:10AB500070BD000020C90720002070472DE9F0419A
:10AB6000194F0C460646D7E90401401A17490988CF
:10AB7000081A002802DC0020BDE8F081844200DDD4
:10AB80000446D7E90602002590420FD3104B021964
:10AB900019448A420AD30D1A98462A463146FDF7CF
:10ABA00075FC2E44641B4046C7F8188034B1224619
:10ABB0003146FDF76BFCB8692044B861396960190A
:10ABC00001443961D8E7000020C90720B43D0900DD
:10ABD0006EEA072010B5054C6068002805D10120F9
:10ABE000606000F005F80020606010BD20C90720FB
:10ABF0002DE9F047244CA06800283ED0D4E9040198
:10AC0000421AE0684FF0000652EA000137D02146B0
:10AC10001E4FC969DFF87880DFF878901E4D7AB151
:10AC2000A069814205D338888B182844834200D319
:10AC3000421A99F8003038F81300904200DA0246C0
:10AC40001648E660007840F0800002F0E9F9E1691A
:10AC50000144E1616269024462613B882B448B429A
:10AC600000D1E561216991420BD199F8002038F8B3
:10AC70001210814205D10120E060BDE8F087A66096
:10AC8000FBE7E660F9E7000020C90720B43D0900B2
:10AC9000B83D090063C907206EEA0720B23D0900EC
:10ACA00010B50B4C206A18B1A06A401CA06210BD00
:10ACB00001202062606200F00DF8002060622062D6
:10ACC000D4E90C018842F2D0401AFFF745FF10BDCD
:10ACD00020C9072010B5134C1348164B216B0A1AD4
:10ACE00012481B780088821A114830F813008242FB
:10ACF0000EDB1148007801F03FFD216B0844206312
:10AD0000A06A00280CD0616A002909D1401E06E023
:10AD10000120E062606A002802D0A06A401CA062A4
:10AD200010BD000020C907206EEC0720B63D0900C9
:10AD3000B83D090063C90720B33D090070470020F2
:10AD4000704700207047000010B50B4800F03CF839
:10AD5000002810D0084A0948116801700B0A437096
:10AD60000B0C8370090EC170117901715179417119
:10AD700091798171012010BD58C90720ACE70720E7
:10AD80000E4810B5002141608160C1600C4A01612C
:10AD9000C0E90512C0E9072141620A4A8162C0E99F
:10ADA0000B124263018038304FF416520260017179
:10ADB00041710821817100F015F810BD20C90720EC
:10ADC0006EEA07206EEC072005490A6802600A79DE
:10ADD00082714A79427189790171012070470000BE
:10ADE000E8C9072010B506F0A3FF03F005FF012016
:10ADF00010BD10B507F00EF8012010BD01207047FE
:10AE0000064902680A6082790A7142794A710079BA
:10AE100088710020C871084607F002B8E8C9072009
:10AE200010B510480024104944608460C460046177
:10AE3000C0E90541C0E9071444620C498462C0E9D5
:10AE40000B4141630480FFF7D4FF06484FF41651CD
:10AE5000383001600471447108218171FFF7D0FF1F
:10AE600010BD000020C907206EEA07206EEC072005
:10AE700010B5FFF7D5FF10BD70B519480078002850
:10AE80002DD0184C00250126206A50B9D4E90C01B8
:10AE9000884206D11449884203D02163E5622562C5
:10AEA0006163A06A70B1206A60B9E06A50B9266235
:10AEB000FFF710FF2562D4E90C01884202D0401A46
:10AEC000FFF74AFED4E90101084308D1D4E904019F
:10AED000884204D06660A660FFF78AFE656070BD98
:10AEE00061C9072020C907206EEC072070B5054610
:10AEF0000D480068C1698847A0B90C4C35B103F012
:10AF0000D1FF2060002006F00FFD0BE003F0CAFF28
:10AF10002168401AB0F5967F01D3012000E000209F
:10AF200003F072FE012070BDE8360900E4C9072075
:10AF30000020704700207047024910B50880FFF7D5
:10AF40005DFF10BD20C90720084810B5C178026810
:10AF500061F31F6206490A6002790A7142794A71F7
:10AF6000807988710846FFF74BFF10BDACE70720DA
:10AF700058C9072008281ED9102801D80120704779
:10AF8000202801D802207047402801D803207047AC
:10AF9000802801D804207047B0F5807F01D80520B3
:10AFA0007047B0F5007F01D806207047B0F5806F7C
:10AFB00001D807207047002070470000074B00F0C1
:10AFC0000F0003EB40126021C2F81811044951F838
:10AFD000202022F0200241F82020704700400A4043
:10AFE00070EE0720817801F00F02072A0DD2DFE80A
:10AFF00002F007040407070909004FF4007105E097
:10B00000402103E04FF4806100E00021808881420C
:10B0100006DB5101034A4FF418501144C1F80401F2
:10B020007047000000400A40704700F0EDBA000091
:10B0300009490028086806D020F4007008600868F4
:10B0400040F4006005E040F400700860086820F4F7
:10B05000006008607047000000400A4010B50B4CCB
:10B060000B48A2880078824200D902461AB90749E3
:10B070000020143908718020216801F0D1FF216877
:10B0800001442160A188081AA08010BD74C907205E
:10B090009B3D090010B5064C0020A288216801F0F4
:10B0A0006BFB216801442160A188081AA08010BDB3
:10B0B00074C907207047000010B5084A00F00F015E
:10B0C00002EB41140123C4F8083102EB4010D0F820
:10B0D0001401034A42F8210010BD000000400A405C
:10B0E00070EE072010B5084A00F00F0102EB411482
:10B0F0000123C4F8043102EB4010D0F81401034AD4
:10B1000042F8210010BD000000400A4070EE072008
:10B110002DE9F0476E4F0446A7F1080580074FF070
:10B120000009A5F1140622D501F040FF3878C009C6
:10B13000FFF7C0FFF888A8803878C0F3411121B12B
:10B1400001295AD002296FD165E07978DFF884812E
:10B150000C2969D2DFE801F0060C6813681827682B
:10B160002B31384601F06CFC1FE0FFF777FF67E0FA
:10B17000002005E001F02AFFD8F8000039E00120A6
:10B1800001F09CFCC0B3F5E710F01F0F4CD1B8786C
:10B19000012140F08000307000F07F0001F0E0FEFF
:10B1A00001F014FF4CE001F04BFB28B3DDE710F099
:10B1B0001F0F39D146481B3812E001F0CFFCD8B13F
:10B1C00001F004FF444813E000F01F0001282BD1D8
:10B1D000707888B13879B178884225D23F490844DF
:10B1E0002860C2E701F07EFD30B101F0EFFE3C487F
:10B1F000006828B3804723E016E010F01F0013D04A
:10B20000012811D100F004F9D0B900F05DF9B8B906
:10B2100000F0AEF807E010F01F0F05D100F082F942
:10B2200070B900F0C3F958B93878000603D4F8882B
:10B2300008B1002000E0802001F0A4FEA5F80490F1
:10B24000600721D5387800061CD4A888E0B1FFF744
:10B2500021FFA888C0B93878C0F3411161B1012934
:10B260000AD110F01F0007D0012805D100F062F8C4
:10B2700050B900F037F838B9802001F083FEA5F806
:10B28000049001E001F0A8FE200712D538780006EE
:10B2900006D5A888317908430BD0FFF7DFFE08E018
:10B2A0003078010605D500F07F003070002101F0F4
:10B2B00057FE600602D50020FFF780FE200604D569
:10B2C000BDE8F0478020FFF779BEBDE8F0870000B9
:10B2D0007CC90720183E0900103E0900A3C80720BA
:10B2E000143E090010B51049104A087912789042AE
:10B2F00003D00F4A1278904214D1487820B1022826
:10B3000005D020280ED10AE0FFF712FE02E048889F
:10B31000FFF710FE30B101F059FE012010BDFFF71C
:10B3200013FEF7E7002010BD7CC90720ACC707203B
:10B33000ADC7072010B50B490B4A08791278904227
:10B3400003D00A4A1278904209D14878092806D1D8
:10B3500000F00CFB18B101F039FE012010BD0020F7
:10B3600010BD00007CC90720AEC70720B0C707206A
:10B3700070B52249224A08791278904203D0214AB6
:10B380001278904237D11D4849781F4C1F4D408894
:10B3900004291FD007DC79B101290FD002290BD075
:10B3A000032928D111E0202906D0212919D02229EA
:10B3B0001AD023291FD11AE02C6010E0FFF7C1FC3E
:10B3C00005E02C60FFF74AFE09E0FFF7B8FC002813
:10B3D000F7D110E0FFF798FB0BE001F0F7FD01203B
:10B3E00070BDFFF7B1FCF2E7FFF7A6FD01E0FFF744
:10B3F0007DFD0028F1D1002070BD00007CC9072030
:10B40000ACC70720ADC70720ACE7072074C90720E9
:10B410002DE9F041244E254930790978884203D03E
:10B420002349097888423CD17078224C224D234F21
:10B430000C2836D2DFE800F03506212C35353535BD
:10B440003516243100F0AEF958B3F078012802D057
:10B45000032803D003E01A48206000E02560FFF7CE
:10B46000FDFD12E0F078022802D0032803D00CE0A2
:10B470001448206009E0256007E000F07BF909E04E
:10B4800000F04EFA0BE001F0A1FD0120BDE8F081D3
:10B4900000F07EF928B12760E1E700F05DFA0028AE
:10B4A000F1D10020F2E700007CC90720AEC70720D9
:10B4B000B0C7072074C90720AEC80720ACE7072033
:10B4C000EDE707202EE8072010B51248124A01794F
:10B4D000127891421BD142784188C088FE2A09D057
:10B4E000FF2A14D199B990B901F096F878B101F01A
:10B4F0006DFD0AE059B9012809D100F0A9FD30B16C
:10B50000074906480860FFF7A9FD012010BD00208B
:10B5100010BD00007CC90720AFC70720ACE707209B
:10B5200074C9072070B51B4D1B490026687809783F
:10B5300088422CD1A888022829D1184CAA7812B3A5
:10B54000002003E0217801B10C44401C411C8A42D8
:10B55000F8D82078B0B103F057F90146E01CFCF7A9
:10B5600089FF0F4A012614602078E98881420BD9AF
:10B570000C4990800978491E084206D10A490120E9
:10B58000087002E0002602E09180FFF767FD304678
:10B5900070BD00007CC90720BC3D090064C80720BD
:10B5A00074C907209B3D090064C9072010B5104AE3
:10B5B0001049002450780978884217D190880728CC
:10B5C00014D10E4B0C48012418600189D2888A429C
:10B5D00009D90B4899800078401E014204D10949DD
:10B5E0000120087000E09A80FFF738FD204610BD6A
:10B5F0007CC90720BD3D0900B6C7072074C90720D4
:10B600009B3D090064C90720074800214170C160C3
:10B6100001614161418081808161C161C18001819D
:10B62000016241817047000084C907202DE9F0477D
:10B63000494EB08871884A4FDFF820817D1C002474
:10B64000884216D3B069A0B97461B48001233978F7
:10B650007A1C184606F08CFF7080708848B17761BC
:10B6600098F80000012801D8756102E07088401C3C
:10B67000708070884FF00109B0BBF06808B1F460C9
:10B6800032E0316981B398F8000001280DD83C7090
:10B69000B48002237A1C0021012006F069FF70802B
:10B6A000708800B1756134611EE03D78C846202D78
:10B6B00000D3002508FA05F0084218D0681CC1B272
:10B6C0003970B48002237A1C012006F051FF70808B
:10B6D000708818B177617088401C7080306908FAF2
:10B6E00005F820EA08003061708830B902E06D1C6E
:10B6F000EDB2DCE7B069002829D07088B188DFF8A6
:10B700006880401A85B2174F98F8000037F810008B
:10B71000A84200D205461548007828B140F08000C4
:10B720002A46716901F07CFC7069114928447061F6
:10B73000B088284480B2B0800988884209D298F83D
:10B74000000037F81000A84203D1C6F81890BDE8F1
:10B75000F087B461FBE7000084C90720A63D09001B
:10B76000ECE70720A23D090063C907209C3D0900C2
:10B77000A83D0900034804498078085C0349087023
:10B78000012070477CC90720ACC80720ACE7072020
:10B7900010B506F0EBFE02490870012010BD000054
:10B7A000ACE707200B4910B5C8780022012804D067
:10B7B000022804D0032806D103E0074A02E0002053
:10B7C00010BD064A521C8978002306F0D1FE0120E4
:10B7D00010BD00007CC90720ECE70720ADC807209A
:10B7E0002DE9FC5F4548007800287DD0444D0423B6
:10B7F00000262978B146481C28704248007800EBA2
:10B80000400293405B1E0192994202DB85F8009052
:10B8100001263D4A00241188FF2901D2491C1180CC
:10B820003A4931F81000384900900988884200D11F
:10B83000012439490020DFF8D8804FF0010BDFF8F0
:10B84000D4A091F800E045E0002276B11AF800108B
:10B850005346FF2901D2491C195418F8001021B190
:10B860001AF800308B4200D30122019918F80070B9
:10B8700002238B4007FA03F1009B994202DA0FB1D1
:10B88000012300E000233CB133B1D5F810C00BFA1E
:10B8900000F141EA0C0129612049095C8F420ED078
:10B8A0001AF800708F4208D3D5F810C00BFA00F7D1
:10B8B00047EA0C072F6185F8009008F800103AB1AC
:10B8C00023B92A690BFA00F1114329610AF80090A3
:10B8D000401CC0B27045B7D314B10B49A1F8009019
:10B8E0002869002808D000E006E06888002803D115
:10B8F000BDE8FC5FFFF79ABEBDE8FC9F61C9072069
:10B9000084C9072063C90720A8C807209E3D0900F5
:10B91000ABC80720AAC80720A63D0900ACC807206D
:10B92000094809498078C97810B1084A815409E06A
:10B93000084A0020064B127802E01954401CC0B29D
:10B940009042FAD3012070477CC90720ABC807207A
:10B95000ACC80720A63D0900034810B5807806F062
:10B9600099FE012010BD00007CC907200C4908B5D4
:10B97000C8780022012804D0022804D0032806D168
:10B9800003E0002008BD074A00E0074A521C0023DC
:10B990000093CB88897806F07FFE012008BD000067
:10B9A0007CC907202DE80720ADC807202DE9F05FEE
:10B9B000DFF83091D9F81460D9F810004A4C0640ED
:10B9C000F0060FD5D9F814004D46C0F300002070E2
:10B9D00001F01EFA06F014FF4448006800B18047E9
:10B9E0001020A861B00708D501F000FB40480068AE
:10B9F00000B180470221C9F81810B00608D501F03F
:10BA00009BFA3C48006800B180472021C9F8181013
:10BA1000300602D58021C9F81810374D300705D5FA
:10BA2000286800B180470821C9F81810700708D5A8
:10BA300020780424012802D1286800B18047C9F881
:10BA40001840DFF8B8A000244FF0010B04F1080102
:10BA50000BFA01F818EA060F3BD009EB4417D7F8A8
:10BA60001C51274840F82450680508D54FF48060E1
:10BA7000C7F818015AF8241009B108208847A8050A
:10BA80000AD5D9F8101021EA0801C9F810105AF89F
:10BA9000241009B104208847A8040DD5D7F8000167
:10BAA00010F0300F04D15AF8241009B180208847D3
:10BAB0004FF40050C7F81801E8040AD5D9F810105F
:10BAC00021EA0801C9F810105AF8241009B102201F
:10BAD0008847641C062CB9D9BDE8F05F1D20FEF72D
:10BAE0001DBC000000400A4063C90720C03D09009A
:10BAF000C43D0900C83D0900CC3D0900D03D090006
:10BB000070EE0720F0B4244A224810602249D00683
:10BB1000D439086020494FF47100C83908601E48C4
:10BB20007C3801684906FCD51A48401C10601B4D42
:10BB3000286840F400702860286840F4006028609D
:10BB4000286820F480702860286840F4807028609D
:10BB500001200023841E022605EB0011C1F80833E2
:10BB600005EB4012C2F80841C2F81841C2F804318E
:10BB7000C1F80863C1F80833D1F80C23C1F80C23CD
:10BB8000401C0628E8D32B61FE20A861F0BC1D20D4
:10BB9000FEF7C4BB00434D50E4040E4000400A4091
:10BBA00070B500F005F900281CD00F4802220F4D97
:10BBB000027042700E4C03202A632870A06802288D
:10BBC00003D9A4F11F008260A2600A4806490078E8
:10BBD00040F0800001F024FAA068296B401AA060B0
:10BBE0000120207370BD00006EE80720A8C907205F
:10BBF00007F50720AA3D0900114910B50878022869
:10BC000008D0032810D0042812D0052801D1002024
:10BC1000087010BD0B48C07B282801D0A828F8D197
:10BC2000BDE8104000F058BABDE8104000F02CBD4F
:10BC30000548007840F0800000F03EFDF4E7000089
:10BC4000A8C90720E8F40720AA3D0900204A10B53A
:10BC5000117869B301290ED01E48052900781BD040
:10BC600007292BD000F028FD1B4902200873BDE8EE
:10BC7000104000F009BD18481F38C07B2A2803D0A7
:10BC80002F2805D0AA2822D1BDE8104000F0F8BA2C
:10BC9000BDE8104000F08ABA012181400F480068D9
:10BCA000014201D0012000E000204FF4886200E052
:10BCB00009E0BDE810400AA101F0D4BA00201070DC
:10BCC000106B1F2803D1BDE8104000F0C9B810BDAB
:10BCD000A8C90720AB3D090007F507206CC907205C
:10BCE0002E2E5C2E2E5C2E2E5C736F757263655C3F
:10BCF0007573625C6D73635C757362645F6D7363AF
:10BD00002E630000104910B54868C86008B10120D2
:10BD100010BD0E4800F11F0482687AB1007B000656
:10BD200004D50B48007840F0800005E0A068096B5E
:10BD3000884203D00748007800F0BEFC0120207341
:10BD400000F0A2FC002010BDA8C90720E8F40720DD
:10BD5000AA3D0900AB3D09001048007900F08F01B1
:10BD6000080605D501F00F004FF48032824001E053
:10BD700001228A400A48007840F0800088420CD1B5
:10BD800008490968114208D00749084A09689142E0
:10BD900003D10D22044901F043B970477CC9072043
:10BDA000AA3D09006CC9072007F5072055534253E7
:10BDB00070B50A48022400F11F05816831B1007B8B
:10BDC000000608D40648007800F076FC2C7300F0DA
:10BDD0005BFC002070BD012070BD0000E8F407206E
:10BDE000AB3D090010B50E480E4C8068216B8842AF
:10BDF00002D82063032000E0042020700A480B4989
:10BE0000226B007840F0800001F00AF90448226BB0
:10BE10001F308168891A81600021017310BD000004
:10BE2000E8F40720A8C90720AA3D09006EE807200A
:10BE3000FFF7E2BE064810B50288074805490078BA
:10BE400000F09AFC05490863BDE81040FFF7FEBE0C
:10BE5000B03D09006EE80720AB3D0900A8C90720E6
:10BE60002DE9F047734E326B1F2A01D2134600E0D2
:10BE70001F230020704D714902E00C5C2C54401CC3
:10BE80009842FAD3DFF8BC910127DFF8B4A199F802
:10BE900000001F2A40F080007ED129686A4A914242
:10BEA0007AD1654C69681F346160A968A160697BBB
:10BEB00019B9A97B09B1102901D927738AE0E97B57
:10BEC0004FF002082A293ED022DC1A294FD00FDC7D
:10BED0000429F2D006DCE9B30329EED1BDE8F0472E
:10BEE00000F058BB1229E8D1BDE8F04700F0B8B81F
:10BEF000232944D007DC1B2935D01E29DDD1BDE81C
:10BF0000F04700F0DBB825293DD02829D5D148E0FD
:10BF10009E2940D00FDC5529CFD004DC2F2954D0E6
:10BF20003529CAD103E05A2925D09129C5D1BDE8C8
:10BF3000F04700F0F1BBA12929D0A3295DD0A829A1
:10BF40002FD0AA29B9D100F075FA002805D0287B96
:10BF5000000600E003E04BD43770BDE8F087BDE891
:10BF6000F04700F0E1BBBDE8F04700F0BBBBBDE827
:10BF7000F04700F037BABDE8F04700F007BABDE877
:10BF8000F04700F0D1BABDE8F04700F0A5BABDE82F
:10BF9000F047FFF705BE00E032E0BDE8F04700F0F3
:10BFA0004DBB00F047FA0028D7D0287B000605D506
:10BFB00086F80080BDE8F04700F08EB89AF80000DF
:10BFC00000F07AFB84F80C8004E0287C800705D41C
:10BFD00000202073BDE8F04700F056BB00F02AFABD
:10BFE0000028BAD0287B000602D437703762B4E745
:10BFF00099F8000040F08000E2E700F05DFB5CE7AC
:10C000004C4600F059FB2078104C00F00F014FF423
:10C010008030884021685546084320609AF8000027
:10C0200000F04AFB287887402068074306202760F5
:10C03000307092E7A8C90720E8F407206EE80720CF
:10C04000AB3D0900AA3D09005553424370C9072082
:10C05000024900200870012070470000ACE707206B
:10C0600010B5FFF7A5FE002820D0114B002080213D
:10C070001870597002219970D97020241C71587160
:10C080009871D8710B48016808200A7812B11A54C7
:10C09000491C00E01C54401CC0B22428F5D30649BA
:10C0A00024200863BDE81040FFF79CBE10BD0000CF
:10C0B0006EE8072060C80720A8C907200548C07C93
:10C0C000C107044800F11F0000D00121017300F0F6
:10C0D000DBBA0000E8F407202DE9F0412E4D2F4F88
:10C0E0000026A969686ADFF8B88088420AD33878E0
:10C0F000002440F0800000F0DFFA88F80C6000F0C7
:10C10000C3FA08E028492748097830F81140E86A5E
:10C11000844200D30446FFF7F5FD00B90024A86A65
:10C1200048B374B1A96AE86922460144387840F0FE
:10C13000800000F075FFA86A2044A862E86A001B2E
:10C14000E862D5E90410AA6A4143914203D1AE6284
:10C15000696A08446862D8F808104046091BC8F8A4
:10C160000810002C05D0E96A002902D103212970AA
:10C170000673BDE8F081002CE3D0E96A2869014428
:10C18000491EB1FBF0F26869824200D90246E969B2
:10C19000686A06F0EDFAC5E7A8C90720AA3D0900BC
:10C1A00007F50720AC3D090063C907202DE9F041E0
:10C1B0002F4C00252F4EA169606A884207D32E4874
:10C1C0002563007800F078FA357300F05DFAFFF728
:10C1D00099FD20B1206B08B3A06A10B10FE0256370
:10C1E00020E0E16A20690144491EB1FBF0F2606978
:10C1F000824200D90246E169606A06F0B9FA00207D
:10C200001E49A36A226B0BE0D4F81CC01F181CF84F
:10C21000077011F800C0674501D0256202E0401C9C
:10C220009042F1D3A16A206B0A18A262E16A0B1A4C
:10C23000E362D4E904714F43974203D1A562626A75
:10C2400011446162B168091AB16000280DD013B1C0
:10C250002078052809D1206A28B100203073BDE874
:10C26000F04100F011BA0120F8E7BDE8F0810000CC
:10C27000A8C9072007F50720AB3D09006EE8072095
:10C280002DE9F041344D0026344FA969686A88428F
:10C2900007D333482E63007800F00EFA3E7300F0A7
:10C2A000F3F9FFF72FFD00B92E63296BA86A084444
:10C2B0002969884206D9BDE8F041FF2229A1002062
:10C2C00000F0D0BF0020304905E0AB6AEC690A5CA1
:10C2D0000344401CE2542A6B9042F6D3A86A110032
:10C2E0000844A862EA6AA2EB0102EA6222D092B98B
:10C2F00088B129690844401EB0FBF1F468698442A2
:10C3000000D904462246E969686A06F04BFAAE6233
:10C31000686A20440DE0D5E9041202FB01F3834270
:10C3200008D1E969686A06F03DFAAE626969686A2F
:10C3300008446862B968286B091AB960002809D0F6
:10C34000E86A10B12878052804D13E73BDE8F041B1
:10C3500000F09AB9BDE8F081A8C9072007F50720C9
:10C36000AB3D09002E2E5C2E2E5C2E2E5C736F755D
:10C370007263655C7573625C6D73635C7573626434
:10C380005F6D73632E6300006EE8072010B5FFF742
:10C390000FFD00281FD0FFF7B5FC00281BD00E486A
:10C3A0000021062201700D4B427081701A7AD20171
:10C3B000C270017141718171C1710949082018630E
:10C3C0008A68082A03D9A1F11F0290608860BDE83D
:10C3D0001040FFF707BD10BD6EE80720A8C9072071
:10C3E00007F5072010B5FFF7E3FC00281BD0FFF787
:10C3F00089FC002817D00C480321002201700B494A
:10C4000042700B7ADB018370C27004200863084914
:10C410008A68042A03D9A1F11F0290608860BDE8F0
:10C420001040FFF7DFBC10BD6EE80720A8C9072049
:10C4300007F5072070B5244C244DD4F8110000BA3C
:10C4400020F0FF01207D01430020C5E90910E07BB9
:10C450002F280AD004DC28280BD02A2817D104E082
:10C46000A8280DD0AA2812D106E0FFF74BFC00281F
:10C4700027D0E08A41BA0AE0FFF744FC002820D028
:10C48000D4F8150000BA20F0FF01207E014328698E
:10C490000D4E4143E962A06801251F3668B188420C
:10C4A00010D0207B000604D50948007840F08000B9
:10C4B00001E00848007800F0FFF8357300F0E4F878
:10C4C000002070BD012070BDE8F40720A8C9072036
:10C4D000AA3D0900AB3D090010B5FFF769FC002833
:10C4E0001CD0FFF70FFC002818D00D4A0D489169A9
:10C4F000491E0B0E03700B0C43700B0A8370C17046
:10C5000011690B0E03710B0C43710B0A8371C1711E
:10C5100008201063BDE81040FFF764BC10BD0000A8
:10C52000A8C907206EE8072010B5FFF741FC0028D6
:10C5300029D0FFF7E7FB002825D013480021134A34
:10C540000170417081700821C17091690B0E0371F7
:10C550000B0C43710B0A8371C171022101721169C5
:10C560000B0C43720B0A8372C17209490C201063D1
:10C570008A680C2A03D9A1F11F0290608860BDE887
:10C580001040FFF72FBC10BD6EE80720A8C9072098
:10C5900007F5072010B5FFF70BFC002835D01B4826
:10C5A00070211B4B017000214170DC685A6832EA2F
:10C5B000040406D006248470282404734173DA60CE
:10C5C00008E0DAB1134A127BE2B105228270202220
:10C5D00002734173C1700171417181710A22C2718C
:10C5E000017241728172C1728173C17301744174AD
:10C5F00012201863BDE81040FFF7F4BB02228270DE
:10C600003A22E5E781700173E3E710BD6EE8072089
:10C61000A8C9072007F5072004490020086004493D
:10C6200008600449072008700120704770C907207E
:10C6300007F50720A8C90720FFF7EEBF10B5FFF7E1
:10C64000B7FB002817D00C4820220021027041704F
:10C650000A4CC177032022632070094806490078FC
:10C6600040F0800000F0DCFC0648226B8168891AEB
:10C6700081600121017310BD6EE80720A8C9072061
:10C68000AA3D090007F50720084910B506480860CB
:10C6900007480D22007840F0800000F0C1FC0549F9
:10C6A0000520087010BD00005553425307F50720C0
:10C6B000AA3D0900A8C9072010B5044600F062FC95
:10C6C000200605D504F00F014FF48030884001E0CA
:10C6D0000120A04002490A681043086010BD000014
:10C6E0006CC907200A4810B5817C00F11F0429B1EC
:10C6F00001202073BDE81040FFF7C6BFC07C05498C
:10C7000000F00100486006F04BF80020F1E700005F
:10C71000E8F40720A8C90720024900200873FFF7A2
:10C72000B3BF000007F507200F4810B5816800F17E
:10C730001F0469B1007B000604D50C48007840F066
:10C74000800001E00A480078FFF7B6FF012004E00E
:10C75000FFF7D8FA002805D000202073BDE810406C
:10C76000FFF792BF10BD0000E8F40720AA3D0900C2
:10C77000AB3D0900704700002DE9F04100F00F04C7
:10C780001D4850F824701D48C7F30A5600EB0440BA
:10C79000964201D9154600E03546002204E010F823
:10C7A000013B01F8013B521CAA42F8D3AE4201D131
:10C7B000012000E000204FF4F77211A100F052FDBB
:10C7C0001D48AE4206D1B90504D500EB441241150F
:10C7D000C2F81811F90405D500EB44124FF480514A
:10C7E000C2F81811016901220834A2401143016105
:10C7F0003046BDE8F081000070EE072000001820F0
:10C800002E2E5C2E2E5C2E2E5C736F757263655C13
:10C810006869635F68616C5C61746D656C5C7361B1
:10C820006D337532635C757362645F415453414D7F
:10C83000335532432E63000000400A40FFF78CBAA4
:10C840002DE9FC414E4BA3F11C051878A3F1080417
:10C8500010F01F0002D001286DD179E04949D87845
:10C86000494E0A784649494F1C390628C97810D0E4
:10C8700006DC012809D0022814D003287ED141E02B
:10C8800007282AD00F2879D156E04148206012208D
:10C890005CE0002A72D019B13E4820600A2055E0C1
:10C8A0003D48FAE70AB9012968D0022021B1009772
:10C8B000787000209A7809E000967070F9E7009986
:10C8C0000B7813B14B8819440091401C8242F6D179
:10C8D0000098017879B3206037E062B3072021B176
:10C8E0000096707000209A7809E000977870F9E758
:10C8F00000990B7813B14B8819440091401C824277
:10C90000F6D1E5E7254800909878032801D000206B
:10C9100008E001F0D9FF0BE000990A780AB1114450
:10C920000091401C99788142F6D10098017811B1AC
:10C93000206000780AE021E01948007800281BD028
:10C940001848009020600178C1B14088019005E04E
:10C9500001A9684600F02AF800280DD0A1880198A6
:10C96000814208D9104980B2A0800978491E084246
:10C9700001D1012028710120BDE8FC810020FBE7E6
:10C980007CC90720993D09001CE60720E4E6072042
:10C99000403E09005C3E0900523E0900A03E0900ED
:10C9A0009A3D0900663E09009B3D090070B5194A91
:10C9B000194C1B4ED378194A2578212B1478154A27
:10C9C000127902D0222B22D116E0AA4201D0A24233
:10C9D0001DD1144A1378144A12780BB9012A16D0C3
:10C9E00042B1124A02601046114A12881044306067
:10C9F000092009E00F4AF5E7AA4201D0A24206D178
:10CA00000D4830600D4800880860012070BD00208E
:10CA100070BD00007CC90720AEC70720B0C7072043
:10CA200074C90720993D090063C90720E4E607207F
:10CA3000B4C707201CE607201C3E09003E3E090043
:10CA400070B51C481B4C0078A4F1080410F01F00BE
:10CA50000AD0184AA4F11403174D59781279012805
:10CA600006D0022824D109E01248163820601DE0C3
:10CA7000F1B1987882421BD2002015E002F08F00BD
:10CA8000020605D500F00F064FF48032B24001E0F7
:10CA90000122824009B900070AD19868104207D0E4
:10CAA000D868104000D0012028802560012070BD8A
:10CAB000002070BD7CC90720ACE7072070B5264B6D
:10CAC000024619461878498810F01F00A3F11C0689
:10CAD00004D0012829D0022827D111E0012924D12E
:10CAE00032B1012000F08EFAF08840F0020005E03B
:10CAF000002000F087FAF08820F00200F08029E0A2
:10CB0000187900F08F04200605D504F00F004FF4CB
:10CB10008035854001E00125A540707828B12007C7
:10CB200003D0B068284200D009B1002070BD2AB1FE
:10CB3000204600F027FAF06828430AE030692842CE
:10CB400008D12046FEF73AFA2046FFF777FEF06854
:10CB5000A843F060012070BD7CC907202DE9F05F7B
:10CB60005A480026017811F01F0F7DD1574F807869
:10CB70001C3FB1464FF0010A4FF4803B00287AD0A9
:10CB8000534801783846C07809B901286CD008B1FB
:10CB9000504C6CE0504C6AE06078022805D00428C4
:10CBA00045D0052845D007285CD148486179807870
:10CBB00081423AD1787020794949B8700020474ABB
:10CBC000098802E002F80090401C8842FAD301254F
:10CBD000B8460AFA05F0D8F80810084202D02846EC
:10CBE000FEF76AFAD8F808100BFA05F0084203D0ED
:10CBF00045F08000FEF760FA6D1C102DE9D34FF070
:10CC00000110C8E902090120C8F81090FEF70CFADB
:10CC1000E0794006B8F8060002D540F0010001E0D6
:10CC200020F00100A8F806001CE060881BE0E67810
:10CC300018E0BEB9A07800F08F05280604D505F0ED
:10CC40000F010BFA01F001E00AFA05F0B96801439F
:10CC50002046B960FEF7C6F92846FEF743FA284693
:10CC600000F046F9207801E02BE004E0044420784D
:10CC7000002891D120E04D4687F8019001245E46BE
:10CC8000B9680AFA04F0084202D02046FEF714FA06
:10CC9000B96806FA04F0084203D044F08000FEF7B9
:10CCA0000BFA641C102CEBD34FF00110C7E90205FE
:10CCB00000203D61FEF7B8F9044879788078884211
:10CCC00002D00020BDE8F09F0120FBE77CC90720CF
:10CCD000993D0900E4E607201CE60720A3C80720C9
:10CCE000B2C707202DE9F84F444800273E46007898
:10CCF000BA4600F01F00B94601287CD13F491C39D3
:10CD00004878002874D0002000903D4802780846FA
:10CD1000C0780AB901286ED08B4608B1394C63E05F
:10CD2000394C61E06078022805D004280AD0052833
:10CD30001AD0072856D161799BF80100814251D061
:10CD4000608850E02D48A778E67801794FF0000917
:10CD5000B94247D18078B04244D1012000902B489D
:10CD600010F807A0C6553DE024490879B84239D1EA
:10CD7000A07800F08F085FEA086005D508F00F0082
:10CD80004FF48035854002E0012505FA08F58878E2
:10CD9000B04215D1DBF8081020462943CBF8081023
:10CDA000DBF80C10A943CBF80C10FEF71BF940463A
:10CDB000FEF798F9404600F09BF849EA050911E0B2
:10CDC00056450FD119EA050F0CD1DBF80810404683
:10CDD000A943CBF80810DBF80C10A943CBF80C10D2
:10CDE000FEF76AF920780444207800289AD1009848
:10CDF000BDE8F88FFFE70020FAE700007CC90720B4
:10CE0000993D0900E4E607201CE60720A3C8072097
:10CE10002DE9F04700207F232F4E304A044601259C
:10CE200002EB4011C1F80041C1F8085146F820401A
:10CE3000401C0628F4D9D361D4612948006800B1A8
:10CE4000022028490968002901D04FF0040140EA76
:10CE5000010002D04FF0080101E04FF0000140EA6C
:10CE600001002149096809B14FF0100140EA0100B1
:10CE700040EA03209146144610614FF04000FEF74F
:10CE800079F840F04000C4F8000143F21160C4F8A2
:10CE90000401164C1BE06078052816D1A078E178D3
:10CEA00000F00F08C60901F00307A579A088FEF776
:10CEB00061F8290241F0400141EA071141EAC60246
:10CEC000024309EB4810C0F8002120780444207880
:10CED0000028E0D1BDE8F08770EE072000400A404E
:10CEE000C43D0900CC3D0900C03D0900E4E607202F
:10CEF0000B4900F00F0010B501EB40136022C3F89E
:10CF00001821CC69012282401443CC61CC6994433E
:10CF1000CC61D3F81411034A42F8201010BD000070
:10CF200000400A4070EE072010B5FDF7A1FFBDE8F4
:10CF30001040FFF781BB00000448016921F0200187
:10CF40000161016941F002010161704700400A403E
:10CF500010B5FEF745FCBDE81040FDF78DBF0000A1
:10CF6000002906D1064928B10A6840F08000024332
:10CF70000A607047086820F0FF00086070470000F2
:10CF800000400A40074B00F00F0003EB4012202145
:10CF9000C2F81411044951F8202042F0200241F84F
:10CFA0002020704700400A4070EE07200822024906
:10CFB0000020FFF7E1BB00007CC9072002484FF4C6
:10CFC0000071C06801F096BFCCC107200022114655
:10CFD000802000F025B800000248034902780020B4
:10CFE000FFF7CABB9B3D0900ACE707200448016975
:10CFF00021F002010161016941F0200101617047E6
:10D0000000400A40002808D10448016821F48061EA
:10D010000160016921F080010161704700400A4010
:10D020002DE9F04100F00F07204890460C4650F8DB
:10D0300027601F4800EB4715D5F81C0106F02001BA
:10D0400000F02000884201D1012000E000204FF4D0
:10D05000047218A100F006F9B00602D54046BDE8FA
:10D06000F081D5F81C0140F2162240F3C02011A136
:10D07000401C00F0F7F846F3C02040F217220DA143
:10D08000401C00F0EFF81948002200EB074004E0D4
:10D0900014F8011B00F8011B521C41464245F7D30E
:10D0A0004FF40060C5F814010846D8E770EE072079
:10D0B00000400A402E2E5C2E2E5C2E2E5C736F7567
:10D0C0007263655C6869635F68616C5C61746D65FF
:10D0D0006C5C73616D337532635C757362645F4160
:10D0E0005453414D335532432E6300000000182045
:10D0F00010B509494FF400742246A1F1100000F068
:10D1000098F906492246A1F1100000F092F904496D
:10D110000020886010BD00000CE207201CE40720FE
:10D12000A0C7072010B5104800F071F900B1012028
:10D13000A1220EA100F096F818494FF48050086023
:10D14000094800F085F91649164A88700120886060
:10D15000891C1160111D0860124900021831086015
:10D1600011494000086010BDFCE107202E2E5C2E06
:10D170002E5C2E2E5C736F757263655C6869635FED
:10D1800068616C5C61746D656C5C73616D33753284
:10D19000635C756172742E6300000000540C0E40D5
:10D1A000A0C7072008070E4008060E4009490001E5
:10D1B00009684A00B2FBF0F0400807D0064A106048
:10D1C000B1FBF0F005490009486070474FF0FF30AF
:10D1D000704700009CC7072020060E40A0C707200C
:10D1E00010B5002A06DA22F00042D21D22F0070311
:10D1F000102203E0D21C22F003030C2213B19C186E
:10D200008C4201D9012010BD024401448360C0E971
:10D210000021C91AD018884202D810600246F9E7E6
:10D220000020106010BD000010B5044603F09CF80B
:10D23000002805D04FF6FF71DFF808C0206800DF36
:10D2400010BD000021FE080010B5044603F08CF864
:10D25000002803D0DFF808C0206800DF10BD000000
:10D2600071FD08002DE9F04116460F4600281AD13D
:10D27000EFF3108000F0010572B600231A4619463C
:10D28000184600F013FA040003D13146384600F086
:10D290005FFA05B962B6002C05D1EFF30380C00632
:10D2A00001D105F079FDBDE8F0810000F0B5A3B033
:10D2B00015460F460446442215496846FBF76DF9AA
:10D2C000422269462046FBF7E1F804F8025F6E1C33
:10D2D000257284F820500E4984F8216084F82B6070
:10D2E0004422443111A8FBF758F93C46422211A9C7
:10D2F0003846FBF7CBF804F8025F4220257284F829
:10D30000205084F8216084F82B6023B0F0BD000029
:10D310008C3F09007047000010B528220D490E48C7
:10D32000FBF73BF905F0FAFD0C4805F0F1FD05F0BF
:10D3300023FC0B490B4A0C4B08604FF40071B0FB07
:10D34000F1F01160094901221A6008600949084892
:10D35000086010BD28370900C0D6072069DC080026
:10D36000DCC90720B8C90720BCC90720C0C90720ED
:10D37000C0D40720C4C9072000B591B0FDF7C6FB93
:10D38000402801D9402000E060B181B2684604F035
:10D3900027FD010006D06846FDF7E0FB10B1012033
:10D3A00001F012FC04F09EFD0146402801D9402105
:10D3B00000E059B16846FDF7B5FB38B181B2684667
:10D3C00004F074FD10B1012001F0FEFB01F014FC2B
:10D3D00011B000BD044841788078814201D001201D
:10D3E00070470020704700007CC2072030B505461A
:10D3F000EFF3108000F0010472B6284600F007F841
:10D40000A968081A401E002C00D162B630BDEFF3A7
:10D41000108101F0010372B6D0E900128A4201D3F3
:10D42000501A02E080681044401A002B00D162B606
:10D430007047EFF3108313F0010F72B6C0E90221B9
:10D440004FF000010160416000D162B670470000FA
:10D4500070B50446EFF3108000F0010572B6D4E910
:10D460000001884201D0012000E0002043220EA1EB
:10D47000FFF7F8FEE16820680E5C401C2060A168A0
:10D4800088420CD302D14FF0010001E04FF00000C0
:10D490004FF0480204A1FFF7E5FE0020206005B927
:10D4A00062B6304670BD00002E2E5C2E2E5C2E2EF5
:10D4B0005C736F757263655C6461706C696E6B5CE4
:10D4C000636972635F6275662E63000070B504461F
:10D4D000EFF3108000F0010572B66268E0688154D5
:10D4E0006068401C6060A16888420CD302D14FF094
:10D4F000010001E04FF000004FF0310209A1FFF7F9
:10D50000B1FE00206060D4E90001884201D0012012
:10D5100000E00020362203A1FFF7A4FE002D00D179
:10D5200062B670BD2E2E5C2E2E5C2E2E5C736F7537
:10D530007263655C6461706C696E6B5C6369726375
:10D540005F6275662E6300002DE9F04114460E46B9
:10D550000746FFF75CFF844200D2204605460024C0
:10D5600004E03846FFF774FF3055641CAC42F8D332
:10D570002846BDE8F0812DE9F04114460E460746E5
:10D58000FFF734FF844200D220460546002404E021
:10D59000315D3846FFF79AFF641CAC42F8D3284649
:10D5A000BDE8F08100F04EBC00F04CBC0248807930
:10D5B000002800D001207047CCF407200248C07931
:10D5C000002800D001207047CCF407200248007AE0
:10D5D000002800D001207047CCF407202DE9F0414D
:10D5E0008D211F48FBF713F81E4C1F4F8D25206817
:10D5F0001B4EB84210D1A5888D2D01D22A4601E0DC
:10D600004FF08D0201D84FF08D0516491448FAF7F6
:10D610003DFF002086F847008D211248FAF7F7FFFA
:10D620002760A58041223546F11DE01DFAF72EFF47
:10D6300035F8480F24F8480FA878A070E878E07013
:10D640008200074907484C314C30FAF71FFF95F824
:10D65000440084F84400BDE8F04100F0AFB8000099
:10D660003CF40720003F0820646C766B074A92F870
:10D670004B10102901D30020704702EB8101C864D0
:10D6800012F84B0F401CC0B210707047003F0820CA
:10D6900010B5054C4121E01DFAF7B9FF002024F830
:10D6A000480FE07010BD0000003F08202DE9F04752
:10D6B000184F81461D4616468846F81DFAF770FE3B
:10D6C000441CB9F1000002D04146FAF7A0FF002047
:10D6D00006B1308005B12870F879002818D044458B
:10D6E00002D8F91D224604E0A4EB0800C119424605
:10D6F000C91DB9F1000F02D0B7F84800308016B14B
:10D700004846FAF7C3FE15B197F84A002870012081
:10D71000BDE8F087003F0820014890F88C00704772
:10D72000003F0820054991F84B202AB101F14C0235
:10D73000026091F84B00704700207047003F0820BE
:10D7400002488079002800D001207047003F08205F
:10D750002DE9F04188460746FAF722FE104D441C99
:10D7600041263146E81DFAF752FF412C02D83946CE
:10D77000224602E0413CE11932462C46E81DFAF708
:10D7800085FEA4F8488000F0FBF808B1012003E012
:10D7900000F0F8F800B1022084F84A00BDE8F081FA
:10D7A000003F0820014981F88C007047003F0820A5
:10D7B0000149887170470000003F082070B50022C1
:10D7C00011461046FAF7E4FF14491348144C0A684E
:10D7D00002604A684260097A01722068114DA842CD
:10D7E00009D1A088092801D2A28800E009220C49A9
:10D7F0000948FAF74BFE0848092105608180206836
:10D80000A84202D1A088092804D2BDE8704002488D
:10D8100001F0A8BD70BD0000CCF407203440090021
:10D8200000F00900646C766B02498871084601F0CB
:10D8300099BD0000CCF407200249C871084601F0E8
:10D8400091BD0000CCF4072002490872084601F09F
:10D8500089BD0000CCF407202DE9F0410F460646B3
:10D860004FF0FF340025DFF83C8012E0705D0821A6
:10D8700002F05AF884EA006408204146002C02DADB
:10D8800081EA440400E06400401E10F0FF00F5D17E
:10D890006D1CBD42EADB2021204602F045F8C04362
:10D8A000BDE8F081B71DC1042DE9F0410E461746D1
:10D8B0002021C04302F038F804460025DFF83C8000
:10D8C00012E0705D082102F02FF884EA006408205D
:10D8D0004146002C02DA81EA440400E06400401E64
:10D8E00010F0FF00F5D16D1CBD42EADB202120467F
:10D8F00002F01AF8C043BDE8F0810000B71DC10472
:10D9000070B514460D460646B2F5806F07D24FF447
:10D91000EF720AA10020FFF7A5FC022070BD00F005
:10D92000B7FC08B1102070BD2A462146304600F0F1
:10D930002DFE0028F7D01F2070BD00002E2E5C2E7B
:10D940002E5C2E2E5C736F757263655C6461706C07
:10D95000696E6B5C647261672D6E2D64726F705CB2
:10D960006961705F666C6173685F696E74662E636F
:10D9700000000000C10600F00F0000D4093070471D
:10D98000002070470120704710B500231A4600F0B0
:10D9900091FA002800D0012010BD10B505F00AF85A
:10D9A000012800D0002010BD2DE9F041154E4FF4A4
:10D9B00000244FF408253078012806D04FF49C72DB
:10D9C00011A10020FFF74EFC09E0B078022748B112
:10D9D0004FF49F720CA10020FFF744FC3770022027
:10D9E000BDE8F081204600F02BF810B137702120FF
:10D9F000F6E704F58064AC42F4D30120B070002057
:10DA0000EEE7000058C207202E2E5C2E2E5C2E2E34
:10DA10005C736F757263655C6461706C696E6B5C7E
:10DA2000647261672D6E2D64726F705C6961705FE6
:10DA3000666C6173685F696E74662E630000000037
:10DA400070B5214E04463078012806D04FF480721C
:10DA50001EA10020FFF706FC18E04FF48060B4FB25
:10DA6000F0F100FB1141022511B14FF4847208E07E
:10DA7000F17869B1D6E902121144A14208D040F20E
:10DA80000F1212A10020FFF7EDFB3570022070BDD0
:10DA90004FF41F22B4F5082F01D3944211D3012172
:10DAA000F170C6E90240204601F020F8252803D095
:10DAB0000028ECD0357070BD204600F0E9FB00284E
:10DAC000F9D03570202070BD58C207202E2E5C2E54
:10DAD0002E5C2E2E5C736F757263655C6461706C76
